:020000040800F2
:1000000000000120AD1F0008E11D0008E71D0008E9
:10001000ED1D0008F31D0008F91D00080000000098
:10002000000000000000000000000000FF1D0008AC
:100030000D1E0008000000001B1E0008291E0008FD
:10004000FD1F0008FD1F0008FD1F0008FD1F000820
:10005000FD1F0008FD1F0008FD1F0008FD1F000810
:10006000FD1F0008FD1F0008FD1F0008FD1F000800
:10007000FD1F0008FD1F0008FD1F0008FD1F0008F0
:10008000FD1F0008FD1F0008FD1F00080000000004
:10009000000000000000000000000000FD1F00083C
:1000A000FD1F0008FD1F0008FD1F0008FD1F0008C0
:1000B000FD1F0008FD1F0008FD1F0008FD1F0008B0
:1000C000FD1F0008FD1F0008FD1F0008FD1F0008A0
:1000D000FD1F0008FD1F0008FD1F000800000000B4
:1000E000FD1F0008FD1F0008FD1F000800000000A4
:1000F000000000000000000000000000FD1F0008DC
:1001000000000000FD1F0008FD1F0008FD1F000883
:1001100000000000000000000000000000000000DF
:10012000FD1F0008FD1F0008FD1F0008FD1F00083F
:10013000FD1F00080000000000000000000000009B
:10014000000000000000000000000000FD1F00088B
:10015000FD1F0008FD1F0008FD1F0008FD1F00080F
:10016000FD1F0008FD1F0008000000000000000047
:10017000000000000000000000000000000000007F
:1001800000000000FD1F000800000000000000004B
:04019000FD1F000847
:1001A00010B5054C237833B9044B13B10448AFF3B1
:1001B00000800123237010BDDC010020000000003E
:1001C000FC67000808B5034B1BB103490348AFF3B4
:1001D000008008BD00000000E0010020FC6700086E
:1001E000034613F8012B002AFBD1181A0138704777
:1001F00001F0FF01102A2BDB10F0070F08D010F8D8
:10020000013B013A8B422DD010F0070F42B3F6D1DB
:10021000F0B441EA012141EA014122F007047FF0F4
:1002200000070023F0E80256083C85EA010586EA4B
:10023000010685FA47F5A3FA87F586FA47F6A5FA87
:1002400087F68EB9EED1F0BC01F0FF0102F0070293
:1002500032B110F8013B013A83EA010313B1F8D13E
:100260000020704701387047002D06BF354603381F
:10027000073815F0010F07D1013015F4807F02BF58
:10028000013015F4C03F0130F0BC0138704700BFA9
:1002900081F0004102E000BF83F0004330B54FEA37
:1002A00041044FEA430594EA050F08BF90EA020FA4
:1002B0001FBF54EA000C55EA020C7FEA645C7FEA37
:1002C000655C00F0E2804FEA5454D4EB5555B8BF5A
:1002D0006D420CDD2C4480EA020281EA030382EACB
:1002E000000083EA010180EA020281EA0303362D5D
:1002F00088BF30BD11F0004F4FEA01314FF4801C30
:100300004CEA113102D0404261EB410113F0004F41
:100310004FEA03334CEA133302D0524263EB4303F8
:1003200094EA050F00F0A780A4F10104D5F1200E96
:100330000DDB02FA0EFC22FA05F2801841F10001F1
:1003400003FA0EF2801843FA05F359410EE0A5F1C5
:1003500020050EF1200E012A03FA0EFC28BF4CF0F6
:10036000020C43FA05F3C01851EBE37101F00045AC
:1003700007D54FF0000EDCF1000C7EEB00006EEBB9
:100380000101B1F5801F1BD3B1F5001F0CD3490843
:100390005FEA30004FEA3C0C04F101044FEA44529A
:1003A00012F5800F80F09A80BCF1004F08BF5FEA21
:1003B000500C50F1000041EB045141EA050130BD01
:1003C0005FEA4C0C404141EB0101013C28BFB1F513
:1003D000801FE9D291F0000F04BF01460020B1FA5E
:1003E00081F308BF2033A3F10B03B3F120020CDA31
:1003F0000C3208DD02F1140CC2F10C0201FA0CF00F
:1004000021FA02F10CE002F11402D8BFC2F1200C73
:1004100001FA02F120FA0CFCDCBF41EA0C01904029
:10042000E41AA2BF01EB0451294330BD6FEA040472
:100430001F3C1CDA0C340EDC04F11404C4F120025D
:1004400020FA04F001FA02F340EA030021FA04F36F
:1004500045EA030130BDC4F10C04C4F1200220FAC6
:1004600002F001FA04F340EA0300294630BD21FA04
:1004700004F0294630BD94F0000F83F4801306BFCA
:1004800081F480110134013D4EE77FEA645C18BFBE
:100490007FEA655C29D094EA050F08BF90EA020F55
:1004A00005D054EA000C04BF1946104630BD91EA4D
:1004B000030F1EBF0021002030BD5FEA545C05D150
:1004C0004000494128BF41F0004130BD14F580048F
:1004D0003CBF01F5801130BD01F0004545F0FE4103
:1004E00041F470014FF0000030BD7FEA645C1ABF38
:1004F000194610467FEA655C1CBF0B46024650EA6F
:10050000013406BF52EA033591EA030F41F400219A
:1005100030BD00BF90F0000F04BF0021704730B520
:100520004FF4806404F132044FF000054FF00001F5
:1005300050E700BF90F0000F04BF0021704730B5B6
:100540004FF4806404F1320410F0004548BF40428B
:100550004FF000013EE700BF42004FEAE2014FEAE0
:1005600031014FEA02701FBF12F07F4393F07F4FBB
:1005700081F06051704732F07F4208BF704793F0BE
:100580007F4F04BF41F40021704730B54FF46074D1
:1005900001F0004521F000411CE700BF50EA0102D4
:1005A00008BF704730B54FF000050AE050EA01027D
:1005B00008BF704730B511F0004502D5404261EBED
:1005C00041014FF4806404F132045FEA915C3FF42E
:1005D000D8AE4FF003025FEADC0C18BF03325FEACB
:1005E000DC0C18BF033202EBDC02C2F1200300FA7C
:1005F00003FC20FA02F001FA03FE40EA0E0021FAA1
:1006000002F11444BDE600BF70B54FF0FF0C4CF48E
:10061000E06C1CEA11541DBF1CEA135594EA0C0F40
:1006200095EA0C0F00F0DEF82C4481EA030621EA7B
:100630004C5123EA4C5350EA013518BF52EA0335B6
:1006400041F4801143F4801338D0A0FB02CE4FF068
:100650000005E1FB02E506F00042E0FB03E54FF098
:100660000006E1FB03569CF0000F18BF4EF0010E90
:10067000A4F1FF04B6F5007F64F5407404D25FEA8C
:100680004E0E6D4146EB060642EAC62141EA55513F
:100690004FEAC52040EA5E504FEACE2EB4F1FD0C81
:1006A00088BFBCF5E06F1ED8BEF1004F08BF5FEAFF
:1006B000500E50F1000041EB045170BD06F00046B1
:1006C00046EA010140EA020081EA0301B4EB5C045E
:1006D000C2BFD4EB0C0541EA045170BD41F4801156
:1006E0004FF0000E013C00F3AB8014F1360FDEBF7B
:1006F000002001F0004170BDC4F10004203C35DA57
:100700000C341BDC04F11404C4F1200500FA05F3D9
:1007100020FA04F001FA05F240EA020001F000427A
:1007200021F0004110EBD37021FA04F642EB0601F0
:100730005EEA430E08BF20EAD37070BDC4F10C041A
:10074000C4F1200500FA04F320FA05F001FA04F2DE
:1007500040EA020001F0004110EBD37041F10001CA
:100760005EEA430E08BF20EAD37070BDC4F12005D5
:1007700000FA05F24EEA020E20FA04F301FA05F23D
:1007800043EA020321FA04F001F0004121FA04F2E5
:1007900020EA020000EBD3705EEA430E08BF20EAB5
:1007A000D37070BD94F0000F0FD101F000464000EF
:1007B00041EB010111F4801F08BF013CF7D041EA71
:1007C000060195F0000F18BF704703F00046520075
:1007D00043EB030313F4801F08BF013DF7D043EA46
:1007E0000603704794EA0C0F0CEA135518BF95EAFC
:1007F0000C0F0CD050EA410618BF52EA4306D1D183
:1008000081EA030101F000414FF0000070BD50EAA1
:10081000410606BF1046194652EA430619D094EA2B
:100820000C0F02D150EA013613D195EA0C0F05D115
:1008300052EA03361CBF104619460AD181EA030169
:1008400001F0004141F0FE4141F470014FF0000021
:1008500070BD41F0FE4141F4780170BD70B54FF0BC
:10086000FF0C4CF4E06C1CEA11541DBF1CEA13553C
:1008700094EA0C0F95EA0C0F00F0A7F8A4EB05041E
:1008800081EA030E52EA03354FEA013100F0888015
:100890004FEA03334FF0805545EA131343EA1263DE
:1008A0004FEA022245EA111545EA10654FEA002693
:1008B0000EF000419D4208BF964244F1FD0404F54C
:1008C000407402D25B084FEA3202B61A65EB0305A8
:1008D0005B084FEA32024FF480104FF4002CB6EB65
:1008E000020E75EB030E22BFB61A754640EA0C00E5
:1008F0005B084FEA3202B6EB020E75EB030E22BF25
:10090000B61A754640EA5C005B084FEA3202B6EB65
:10091000020E75EB030E22BFB61A754640EA9C0024
:100920005B084FEA3202B6EB020E75EB030E22BFF4
:10093000B61A754640EADC0055EA060E18D04FEAB2
:10094000051545EA16754FEA06164FEAC30343EA52
:1009500052734FEAC2025FEA1C1CC0D111F4801F1F
:100960000BD141EA00014FF000004FF0004CB6E718
:1009700011F4801F04BF01430020B4F1FD0C88BFB7
:10098000BCF5E06F3FF6AFAEB5EB030C04BFB6EBC2
:10099000020C5FEA500C50F1000041EB045170BDB5
:1009A0000EF0004E4EEA113114EB5C04C2BFD4EBE2
:1009B0000C0541EA045170BD41F480114FF0000E66
:1009C000013C90E645EA060E8DE60CEA135594EAE2
:1009D0000C0F08BF95EA0C0F3FF43BAF94EA0C0FE5
:1009E0000AD150EA01347FF434AF95EA0C0F7FF45A
:1009F00025AF104619462CE795EA0C0F06D152EAAE
:100A000003353FF4FDAE1046194622E750EA410691
:100A100018BF52EA43067FF4C5AE50EA41047FF4A2
:100A20000DAF52EA43057FF4EBAE12E74FF0FF3C07
:100A300006E000BF4FF0010C02E000BF4FF0010CD8
:100A40004DF804CD4FEA410C7FEA6C5C4FEA430C51
:100A500018BF7FEA6C5C1BD001B050EA410C0CBFA0
:100A600052EA430C91EA030F02BF90EA020F002002
:100A7000704710F1000F91EA030F58BF994208BF69
:100A800090422CBFD8176FEAE37040F00100704726
:100A90004FEA410C7FEA6C5C02D150EA013C07D17D
:100AA0004FEA430C7FEA6C5CD6D152EA033CD3D0C8
:100AB0005DF8040B704700BF8446104662468C46C2
:100AC0001946634600E000BF01B5FFF7B7FF0028F5
:100AD00048BF10F1000F01BD4DF808EDFFF7F4FF1E
:100AE0000CBF012000205DF808FB00BF4DF808EDA9
:100AF000FFF7EAFF34BF012000205DF808FB00BFCC
:100B00004DF808EDFFF7E0FF94BF012000205DF8ED
:100B100008FB00BF4DF808EDFFF7CEFF94BF0120A2
:100B200000205DF808FB00BF4DF808EDFFF7C4FF9B
:100B300034BF012000205DF808FB00BF4FEA410CE4
:100B40007FEA6C5C02D150EA013C0AD14FEA430CC7
:100B50007FEA6C5C02D152EA033C02D14FF0000004
:100B600070474FF0010070474FEA410212F5001242
:100B700015D211D56FF47873B3EB625212D94FEAE4
:100B8000C12343F0004343EA505311F0004F23FACE
:100B900002F018BF404270474FF00000704750EA23
:100BA000013005D111F0004008BF6FF000407047E0
:100BB0004FF00000704700BF7BB972B90029BEBF7B
:100BC00000204FF0004106E008BF00281CBF6FF076
:100BD00000414FF0FF3000F0BFB9ADF1080C6DE9F6
:100BE00004CE002909DB002B1ADB00F04DF8DDF8FC
:100BF00004E0DDE9022304B07047404261EB4101AB
:100C0000002B1BDB00F040F8DDF804E0DDE90223F7
:100C100004B0404261EB4101524263EB4303704731
:100C2000524263EB430300F02FF8DDF804E0DDE906
:100C3000022304B0404261EB41017047524263EB32
:100C4000430300F021F8DDF804E0DDE9022304B0FD
:100C5000524263EB4303704753B94AB9002908BFB6
:100C600000281CBF4FF0FF314FF0FF3000F074B987
:100C7000ADF1080C6DE904CE00F006F8DDF804E0F3
:100C8000DDE9022304B070472DE9F047089D0446D2
:100C90008E46002B4DD18A42944669D9B2FA82F22F
:100CA00052B101FA02F3C2F1200120FA01F10CFA6B
:100CB00002FC41EA030E94404FEA1C48210CBEFBA3
:100CC000F8F61FFA8CF708FB16E341EA034306FB2C
:100CD00007F199420AD91CEB030306F1FF3080F0BB
:100CE0001F81994240F21C81023E63445B1AA4B208
:100CF000B3FBF8F008FB103344EA034400FB07F7AA
:100D0000A7420AD91CEB040400F1FF3380F00A81EA
:100D1000A74240F207816444023840EA0640E41BDF
:100D200000261DB1D4400023C5E900433146BDE88B
:100D3000F0878B4209D9002D00F0EF800026C5E92D
:100D4000000130463146BDE8F087B3FA83F6002E45
:100D50004AD18B4202D3824200F2F980841A61EBBD
:100D6000030301209E46002DE0D0C5E9004EDDE7DB
:100D700002B9FFDEB2FA82F2002A40F09280A1EBC3
:100D80000C014FEA1C471FFA8CFE0126200CB1FB18
:100D9000F7F307FB131140EA01410EFB03F0884211
:100DA00008D91CEB010103F1FF3802D2884200F29E
:100DB000CB804346091AA4B2B1FBF7F007FB101130
:100DC00044EA01440EFB00FEA64508D91CEB0404CE
:100DD00000F1FF3102D2A64500F2BB800846A4EB29
:100DE0000E0440EA03409CE7C6F12007B34022FA14
:100DF00007FC4CEA030C20FA07F401FA06F31C4343
:100E0000F9404FEA1C4900FA06F3B1FBF9F8200C4F
:100E10001FFA8CFE09FB181140EA014108FB0EF095
:100E2000884202FA06F20BD91CEB010108F1FF3AE5
:100E300080F08880884240F28580A8F102086144F1
:100E4000091AA4B2B1FBF9F009FB101144EA0141FF
:100E500000FB0EFE8E4508D91CEB010100F1FF34AA
:100E60006CD28E456AD90238614440EA0840A0FB42
:100E70000294A1EB0E01A142C846A64656D353D018
:100E80005DB1B3EB080261EB0E0101FA07F722FA3C
:100E900006F3F1401F43C5E9007100263146BDE865
:100EA000F087C2F12003D8400CFA02FC21FA03F3C8
:100EB000914001434FEA1C471FFA8CFEB3FBF7F049
:100EC00007FB10360B0C43EA064300FB0EF69E426E
:100ED00004FA02F408D91CEB030300F1FF382FD207
:100EE0009E422DD9023863449B1B89B2B3FBF7F6AF
:100EF00007FB163341EA034106FB0EF38B4208D988
:100F00001CEB010106F1FF3816D28B4214D9023EC8
:100F10006144C91A46EA004638E72E46284605E7E6
:100F20000646E3E61846F8E64B45A9D2B9EB0208B7
:100F300064EB0C0E0138A3E74646EAE7204694E747
:100F40004046D1E7D0467BE7023B614432E730467A
:100F500009E76444023842E7704700BF80B584B0B7
:100F600000AFF860B9607A607B689AB24FF0FF33E7
:100F7000B968044802F0F9FA7B6818461037BD4694
:100F800080BD00BF5002002080B584B002AF0122B6
:100F90004FF400510F4801F033FB002202210D48AD
:100FA00001F02EFBFA1D41F28833009301230A4918
:100FB0000A4802F020F801220221064801F020FB35
:100FC00000224FF40051034801F01AFB00BF08371C
:100FD000BD4680BD00080240B1020020F80100209B
:100FE00080B582B000AF0346FB71FB79002B07D1BF
:100FF0000A4B1B7823F00403DAB2084B1A7006E0A0
:10100000064B1B7843F00403DAB2044B1A70FFF767
:10101000BBFF00BF0837BD4680BD00BFB102002046
:1010200080B584B002AF03460A46FB711346BB711C
:101030000020FFF7D5FFFB7903F07F03DBB2FB71E4
:10104000F91D42F21073009301230A4A0A4801F085
:10105000D2FFB91D42F2107300930123054A0648DE
:1010600001F0C9FF0120FFF7BBFF00BF0837BD46F5
:1010700080BD00BFB0020020F801002080B586B01E
:1010800002AF0346FB710020FFF7AAFF07F10F0232
:10109000F91D42F2107300930123054801F0ABFFE4
:1010A0000120FFF79DFFFB7B18461037BD4680BD32
:1010B000F801002080B584B002AF03463960FB71AF
:1010C0000020FFF78DFF3A46F91D42F2107300939E
:1010D0000223054801F08FFF0120FFF781FF00BFC9
:1010E0000837BD4680BD00BFF801002080B584B040
:1010F00002AF03463960FB710020FFF771FF3A46EB
:10110000F91D42F2107300930223054801F073FFAA
:101110000120FFF765FF00BF0837BD4680BD00BF57
:10112000F801002080B584B002AF03463960FB713E
:101130000020FFF755FF3A46F91D42F21073009365
:1011400003230E4801F057FF3B681B681B0CDAB203
:101150003B681B6803F47F431A433B681B681B040E
:1011600003F47F031A433B6822F07F421A60012098
:10117000FFF736FF00BF0837BD4680BDF8010020ED
:1011800080B582B000AF78607B6819468820FFF791
:1011900091FF012000F0A6FF7B68023319468A20E8
:1011A000FFF7A4FF012000F09DFF7B680433194680
:1011B0008C20FFF79BFF012000F094FF7B68063333
:1011C00019468E20FFF776FF012000F08BFF7B6829
:1011D000083319469020FFF789FF012000F082FFB5
:1011E0007B680A3319469220FFF780FF012000F048
:1011F00079FF7B680C3319469420FFF777FF0120B5
:1012000000F070FF7B680E3319469620FFF76EFFE3
:10121000012000F067FF7B68103319469820FFF724
:1012200065FF012000F05EFF7B68123319469A20AB
:10123000FFF75CFF012000F055FF7B68143319466F
:101240009C20FFF753FF012000F04CFF7B68163312
:1012500019469E20FFF74AFF012000F043FF00BF20
:101260000837BD4680BD80B584B000AF0346FB7132
:10127000F420FFF703FF034623F00303FB730A2068
:1012800000F030FF97F9073003F003035AB297F9E3
:101290000F3013435BB2FB73FB7B1946F420FFF75F
:1012A000BFFE00BF1037BD4680BD000080B584B0D2
:1012B00000AF4FF00003FB603B461946FA20FFF7F2
:1012C00031FF244803F0E8F93B681B093B603B68A9
:1012D000DB08214A128852009B1A1F4AB2F90220E9
:1012E00002FB03F3DB0ABB603B681B091A4A128846
:1012F0009B1A3A68120918490988521A02FB03F32B
:101300001B0B154AB2F9042002FB03F39B0B7B6015
:10131000BA687B681344114A1360104B1A6813466D
:101320009B00134480331B1207EE903AF8EEE77AE5
:10133000C7ED037A97ED037ADFED096AC7EE267AE7
:10134000C7ED037AFB6807EE903AB0EE670A1037F4
:10135000BD4680BD18680008980200209402002055
:101360000000C8422DE9B04FD0B000AF4FF00003ED
:10137000C7F83C314FF00003C7F83831FFF796FF4C
:1013800087ED4E0A07F58C731946F720FFF7CAFE62
:10139000D7F818311B09C7F81831AC4B1B68DA179E
:1013A00098469146B8F5FA33BB6449F1FF33FB64C4
:1013B000D7E91223C7E94C23D7F83421D7F83031C5
:1013C00003FB02F1D7F83421D7F8303102FB03F3E5
:1013D000CA18D7F83031A3FB034553191D469C4B5F
:1013E000B3F910301BB2DA17C7F8C830C7F8CC20F1
:1013F000D7E93201034603FB05F20B4604FB03F376
:1014000013440246A4FB02AB5B449B46C7E94AABCC
:10141000C7E94AAB8E4BB3F90E301BB2DA17C7F8E7
:10142000C030C7F8C420D7F83031D7E930452A4654
:1014300002FB03F2D7F83431214601FB03F31A44CF
:10144000D7F830312146A3FB0113C7F814310B46FE
:10145000C7F81031D7F81431D318C7F814314FF04A
:1014600000004FF00001D7E944452B4659042346BC
:1014700041EAD33123465804D7E94A2314183C647F
:101480004B417B64D7E91034C7E94A34704BB3F958
:101490000C301BB2DA17C7F8B830C7F8BC204FF0D1
:1014A00000004FF00001D7F8B830D9000020D7E98C
:1014B0004A231418BC634B41FB63D7E90E34C7E9D8
:1014C0004A34D7F83421D7F8303103FB02F1D7F88A
:1014D0003421D7F8303102FB03F3CA18D7F8303182
:1014E000A3FB0313C7F80C310B46C7F80831D7F834
:1014F0000C31D318C7F80C31554BB3F90A301BB275
:10150000DA17C7F8B030C7F8B420D7E942452B4600
:10151000D7E92C89424602FB03F24B46214601FBE8
:1015200003F3134422464146A2FB0112C7F80421EB
:101530000A46C7F80021D7F804211344C7F804313C
:101540004FF000004FF00001D7E940452346180A4C
:101550002B4640EA03602B4619123D4BB3F9083085
:101560001BB2DA17C7F8A830C7F8AC20D7F830316B
:10157000D7E92A894A4602FB03F2D7F834314446B8
:1015800004FB03F31A44D7F830314446A3FB044369
:10159000C7F8FC302346C7F8F830D7F8FC30D3182A
:1015A000C7F8FC304FF000024FF00003D7E93E8946
:1015B0004C462303444643EA14534446220384180A
:1015C0003C6341EB03037B63D7E90C34C7E94C343C
:1015D000D7E94C2303F50041C7F8A410C7F8A020B1
:1015E0001B4BDB889BB20022C7F89830C7F89C20C1
:1015F000D7E928452B46D7E92689424602FB03F264
:101600004B46214601FB03F3134422464146A2FB0D
:101610000112C7F8F4200A46C7F8F020D7F8F420E2
:101620001344C7F8F4304FF000024FF00003D7E93D
:101630003C4529464A102946CB17C7E94C23D7E930
:101640004C23134306D14FF0000394E19402002091
:1016500098020020D7F81831C3F580130022BB622E
:10166000FA62D7E90A34C7E94834D7F820315B0871
:10167000C7F89430D7F82031DB07C7F89030D7E9A6
:101680004A23D7E924452146891AC7F888102946F4
:1016900061EB0303C7F88C30D7E9224522462B467D
:1016A000911839625B417B62D7E9082321465118C2
:1016B000B96129464B41FB614FF000024FF0000336
:1016C000D7E9068949468B01414643EA9163414681
:1016D0008A01414689183961494643EB0101796124
:1016E0004FF000024FF00003D7E9048949468B0010
:1016F000414643EA917341468A0010461946034623
:1017000022469B18BB600B462A4642EB0303FB6054
:101710004FF000024FF00003D7E9028949468B00E1
:10172000414643EA917341468A00104619460346F2
:1017300022469B18C7F880302B460A4642EB03032B
:10174000C7F88430D7E94C23D7E92001FFF734FAF2
:1017500002460B46C7E948238B4BB3F916301BB240
:10176000DA17BB67FA67D7E948234FF000004FF05C
:101770000001500B40EAC3405913D7E91E452B46E0
:1017800000FB03F2234603FB01F313442246A2FBB2
:101790000012C7F8EC200A46C7F8E820D7F8EC207A
:1017A0001344C7F8EC30D7E948234FF000004FF05E
:1017B0000001500B40EAC3405913D7E93A452B4684
:1017C00000FB03F2234603FB01F313442246A2FB72
:1017D0000012C7F8E4200A46C7F8E020D7F8E42052
:1017E0001344C7F8E4304FF000024FF00003D7E98C
:1017F000384521464A0E294642EAC11229464B166F
:10180000C7E94C23604BB3F914301BB2DA173B67BE
:101810007A67D7F82031D7E91C452A4602FB03F244
:10182000D7F82431214601FB03F31A44D7F82031BD
:101830002146A3FB0113C7F8DC300B46C7F8D830AC
:10184000D7F8DC30D318C7F8DC304FF000024FF087
:101850000003D7E936452146CA0C294642EA4132FF
:101860002946CB14C7E94A23D7E94801D7E94C23D5
:101870008418BC6641EB0303FB66D7E94A23D7E92A
:101880001A45214689183966294643EB01017966D4
:101890004FF000004FF00001D7E918452346180A21
:1018A0002B4640EA03602B461912374BB3F912302E
:1018B0001BB2DA17BB65FA654FF000024FF0000368
:1018C000D7E916894C462301444643EA147344463B
:1018D000220184183C6041EB03037B60D7E90034AC
:1018E000C7E94834D7E948014FF000024FF0000340
:1018F000020A42EA01620B124FF47A7303FB02F40C
:10190000D7E9482302F0FF033B6500237B651F4BAB
:10191000D7E914894A4603FB02F20023414601FB42
:1019200003F31344194A4146A1FB0212C7F8D4201D
:101930000A46C7F8D020D7F8D4201344C7F8D430CB
:10194000134A4FF00003D7E93401FFF735F9024697
:101950000B4613462344C7F81C31D7F81C3107EE59
:10196000903AB8EE677ADFED0B6AC7EE267AC7EDDC
:101970004F7AD7F83C3107EE903AB0EE670A07F598
:10198000A077BD46BDE8B08F98020020E1F50500C4
:10199000A08601000000C84280B500AFB621E0205B
:1019A000FFF73EFB0A2000F09DFB0448FFF7E8FB31
:1019B0000320FFF758FC00BF80BD00BF9802002045
:1019C00080B582B000AF00F01BFB00F01FF800F004
:1019D000E9F800F087F800F0BBF84FF47A7000F0F7
:1019E00081FBFFF7D9FFFFF7BDFC87ED010A4FF43C
:1019F000FA6000F077FB7868FEF7AEFD02460B4612
:101A0000014802F0C3FDEEE72068000880B594B0FD
:101A100000AF07F1200330220021184602F044F9FC
:101A200007F10C0300221A605A609A60DA601A61AA
:101A30000023BB60294B1B6C284A43F0805313647E
:101A4000264B1B6C03F08053BB60BB6800237B609C
:101A5000234B1B6823F44043214A43F400431360A3
:101A60001F4B1B6803F440437B607B6801233B6290
:101A70004FF480337B620223BB634FF48003FB632C
:101A800006233B6460237B640623BB640423FB645E
:101A900007F12003184600F0CDFD0346002B01D0CE
:101AA00000F0E0F80F23FB6002233B6180237B61A1
:101AB0004FF4A053BB614FF4A053FB6107F10C033B
:101AC0000021184601F02EF80346002B01D000F04B
:101AD000C9F800BF5037BD4680BD00BF0038024086
:101AE0000070004080B500AF174B184A1A60164BC3
:101AF0004FF482725A60144B00229A60124B0022FB
:101B0000DA60114B00221A610F4B00225A610E4B12
:101B10004FF400729A610C4B0022DA610A4B0022EA
:101B20001A62094B00225A62074B00229A62064B46
:101B30000A22DA62044801F0D5F90346002B01D0ED
:101B400000F090F800BF80BDF80100200038004090
:101B500080B500AF114B124A1A60104B4FF4165269
:101B60005A600E4B00229A600C4B0022DA600B4B3D
:101B700000221A61094B0C225A61084B00229A611B
:101B8000064B0022DA61054801F0A2FC0346002B57
:101B900001D000F067F800BF80BD00BF50020020F8
:101BA0000010014080B58AB000AF07F11403002295
:101BB0001A605A609A60DA601A6100233B61274B11
:101BC0001B6B264A43F004031363244B1B6B03F087
:101BD00004033B613B690023FB60204B1B6B1F4AE6
:101BE00043F0800313631D4B1B6B03F08003FB600A
:101BF000FB680023BB60194B1B6B184A43F00203C0
:101C00001363164B1B6B03F00203BB60BB6800231E
:101C10007B60124B1B6B114A43F0010313630F4BA4
:101C20001B6B03F001037B607B68002242F2020120
:101C30000B4800F0E5FC42F202037B610123BB612B
:101C40000023FB6100233B6207F11403194604489B
:101C500000F052FB00BF2837BD4680BD003802406F
:101C60000008024080B400AF72B600BFFEE700007B
:101C700080B483B000AF00237B60104B5B6C0F4AD5
:101C800043F4804353640D4B5B6C03F480437B60EF
:101C90007B6800233B60094B1B6C084A43F0805370
:101CA0001364064B1B6C03F080533B603B6800BF22
:101CB0000C37BD465DF8047B704700BF003802401A
:101CC00080B58AB000AF786007F1140300221A6073
:101CD0005A609A60DA601A617B681B68194A9342FD
:101CE0002CD100233B61184B1B6C174A43F48043F3
:101CF0001364154B1B6C03F480433B613B69002369
:101D0000FB60114B1B6B104A43F0020313630E4B35
:101D10001B6B03F00203FB60FB684FF460437B61C5
:101D20000223BB610023FB6103233B6205237B622B
:101D300007F114031946054800F0DEFA00BF283702
:101D4000BD4680BD0038004000380240000402401B
:101D500080B58AB000AF786007F1140300221A60E2
:101D60005A609A60DA601A617B681B68194A93426C
:101D70002CD100233B61184B5B6C174A43F01003D6
:101D80005364154B5B6C03F010033B613B6900230C
:101D9000FB60114B1B6B104A43F0010313630E4BA6
:101DA0001B6B03F00103FB60FB684FF4C0637B61B6
:101DB0000223BB610023FB6103233B6207237B6299
:101DC00007F114031946054800F096FA00BF2837BA
:101DD000BD4680BD001001400038024000000240B6
:101DE00080B400AFFEE780B400AFFEE780B400AF80
:101DF000FEE780B400AFFEE780B400AFFEE780B43A
:101E000000AF00BFBD465DF8047B704780B400AFF3
:101E100000BFBD465DF8047B704780B400AF00BFD3
:101E2000BD465DF8047B704780B500AF00F03AF91D
:101E300000BF80BD80B400AF01231846BD465DF8E9
:101E4000047B704780B582B000AF7860396001F0E4
:101E500001FF034616221A604FF0FF331846083779
:101E6000BD4680BD80B582B000AF78604FF0FF31D5
:101E70007868FFF7E7FFFEE780B586B000AFF8604F
:101E8000B9607A6000237B610AE0AFF3008001460D
:101E9000BB685A1CBA60CAB21A707B6901337B6195
:101EA0007A697B689A42F0DB7B6818461837BD4632
:101EB00080BD80B483B000AF78604FF0FF33184628
:101EC0000C37BD465DF8047B704780B483B000AF2B
:101ED000786039603B684FF400525A60002318461E
:101EE0000C37BD465DF8047B704780B483B000AF0B
:101EF0007860012318460C37BD465DF8047B7047B7
:101F000080B485B000AFF860B9607A6000231846ED
:101F10001437BD465DF8047B7047000080B586B07D
:101F200000AF7860144A154BD31A7B617B693B6123
:101F3000134B1B68002B02D1114B124A1A60104B35
:101F40001A687B6813443A699A4207D201F082FE0C
:101F500003460C221A604FF0FF3309E0084B1B6860
:101F6000FB60074B1A687B681344054A1360FB68E3
:101F700018461837BD4680BD00000120000400004F
:101F8000B4020020D002002080B400AF064BD3F88A
:101F90008830054A43F47003C2F8883000BFBD465C
:101FA0005DF8047B704700BF00ED00E0DFF834D03F
:101FB0000D480E490E4A002302E0D458C4500433A1
:101FC000C4188C42F9D30B4A0B4C002301E0136078
:101FD0000432A242FBD3FFF7D7FF01F041FEFFF727
:101FE000EFFC70470000012000000020DC01002011
:101FF0002C6C0008DC010020CC020020FEE7000071
:1020000080B500AF0E4B1B680D4A43F4007313609C
:102010000B4B1B680A4A43F480631360084B1B6830
:10202000074A43F480731360032000F031F90F2056
:1020300000F008F8FFF71CFE0023184680BD00BF23
:10204000003C024080B582B000AF7860124B1A6845
:10205000124B1B7819464FF47A73B3FBF1F3B2FBC2
:10206000F3F3184600F03BF90346002B01D001239F
:102070000EE07B680F2B0AD8002279684FF0FF3002
:1020800000F011F9064A7B681360002300E0012389
:1020900018460837BD4680BD00000020080000201B
:1020A0000400002080B400AF064B1B781A46064B94
:1020B0001B681344044A136000BFBD465DF8047BEF
:1020C000704700BF08000020B802002080B400AFB5
:1020D000034B1B681846BD465DF8047B704700BF84
:1020E000B802002080B584B000AF7860FFF7EEFF43
:1020F000B8607B68FB60FB68B3F1FF3F05D00A4B1B
:102100001B781A46FB681344FB6000BFFFF7DEFF35
:102110000246BB68D31AFA689A42F7D800BF00BFDC
:102120001037BD4680BD00BF0800002080B485B0D8
:1021300000AF78607B6803F00703FB600C4BDB6843
:10214000BB60BA684FF6FF031340BB60FB681A021E
:10215000BB68134343F0BF6343F40033BB60044ADE
:10216000BB68D36000BF1437BD465DF8047B704781
:1021700000ED00E080B400AF044BDB681B0A03F005
:1021800007031846BD465DF8047B704700ED00E08C
:1021900080B483B000AF03463960FB7197F9073014
:1021A000002B0ADB3B68DAB20C4997F907301201C1
:1021B000D2B20B4483F800230AE03B68DAB2084944
:1021C000FB7903F00F03043B1201D2B20B441A76E1
:1021D00000BF0C37BD465DF8047B704700E100E0AE
:1021E00000ED00E080B489B000AFF860B9607A60BB
:1021F000FB6803F00703FB61FB69C3F10703042BD2
:1022000028BF0423BB61FB690433062B02D9FB6999
:10221000033B00E000237B614FF0FF32BB6902FA11
:1022200003F3DA43BB681A407B699A404FF0FF31F1
:102230007B6901FA03F3D9437B680B4013431846CB
:102240002437BD465DF8047B7047000080B582B03E
:1022500000AF78607B68013BB3F1807F01D301233D
:102260000FE00A4A7B68013B53600F214FF0FF30BB
:10227000FFF78EFF054B00229A60044B07221A607D
:10228000002318460837BD4680BD00BF10E000E0BF
:1022900080B582B000AF78607868FFF747FF00BF75
:1022A0000837BD4680BD80B586B000AF0346B96033
:1022B0007A60FB7300237B61FFF75CFF78617A68CB
:1022C000B9687869FFF78EFF024697F90F3011461B
:1022D0001846FFF75DFF00BF1837BD4680BD80B5CB
:1022E00082B000AF78607868FFF7B0FF0346184609
:1022F0000837BD4680BD000080B489B000AF78606B
:10230000396000237B6100233B610023BB61002314
:10231000FB6159E10122FB6902FA03F37B613B682F
:102320001B687A6913403B613A697B699A4240F0C5
:1023300048813B685B6803F00303012B05D03B68D1
:102340005B6803F00303022B30D17B689B68BB61A1
:10235000FB695B00032202FA03F3DB43BA69134013
:10236000BB613B68DA68FB695B0002FA03F3BA6998
:102370001343BB617B68BA699A607B685B68BB6129
:102380000122FB6902FA03F3DB43BA691340BB6124
:102390003B685B681B0903F00102FB6902FA03F367
:1023A000BA691343BB617B68BA695A603B685B6872
:1023B00003F00303032B17D07B68DB68BB61FB6969
:1023C0005B00032202FA03F3DB43BA691340BB61EB
:1023D0003B689A68FB695B0002FA03F3BA6913432E
:1023E000BB617B68BA69DA603B685B6803F0030332
:1023F000022B23D1FB69DA087B68083253F82230BC
:10240000BB61FB6903F007039B000F2202FA03F391
:10241000DB43BA691340BB613B681A69FB6903F08F
:1024200007039B0002FA03F3BA691343BB61FB691C
:10243000DA087B680832B96943F822107B681B68A8
:10244000BB61FB695B00032202FA03F3DB43BA6959
:102450001340BB613B685B6803F00302FB695B00F0
:1024600002FA03F3BA691343BB617B68BA691A6065
:102470003B685B6803F44033002B00F0A28000232C
:10248000FB60574B5B6C564A43F480435364544B98
:102490005B6C03F48043FB60FB68524AFB699B085A
:1024A000023352F82330BB61FB6903F003039B0046
:1024B0000F2202FA03F3DB43BA691340BB617B6866
:1024C000494A934219D07B68484A934213D07B68AB
:1024D000474A93420DD07B68464A934207D07B68B7
:1024E000454A934201D1042308E0072306E0032371
:1024F00004E0022302E0012300E00023FA6902F075
:10250000030292009340BA691343BB613549FB69EA
:102510009B080233BA6941F82320384B9B68BB61A2
:102520003B69DB43BA691340BB613B685B6803F4FA
:102530008013002B03D0BA693B691343BB612F4A58
:10254000BB6993602D4BDB68BB613B69DB43BA69B8
:102550001340BB613B685B6803F40013002B03D09E
:10256000BA693B691343BB61244ABB69D360234BFF
:102570005B68BB613B69DB43BA691340BB613B6885
:102580005B6803F40033002B03D0BA693B69134343
:10259000BB611A4ABB695360184B1B68BB613B693E
:1025A000DB43BA691340BB613B685B6803F480336B
:1025B000002B03D0BA693B691343BB610F4ABB6967
:1025C0001360FB690133FB61FB690F2B7FF6A2AE41
:1025D00000BF00BF2437BD465DF8047B704700BFD5
:1025E0000038024000380140000002400004024070
:1025F00000080240000C024000100240003C014074
:1026000080B483B000AF78600B467B8013467B704C
:102610007B78002B03D07A887B689A6103E07B8803
:102620001A047B689A6100BF0C37BD465DF8047BD5
:102630007047000080B586B000AF78607B68002BE3
:1026400001D1012367E27B681B6803F00103002BC3
:1026500075D0884B9B6803F00C03042B0CD0854B82
:102660009B6803F00C03082B12D1824B5B6803F4C8
:102670008003B3F5800F0BD17E4B1B6803F400334E
:10268000002B5BD07B685B68002B57D1012342E2B3
:102690007B685B68B3F5803F06D1764B1B68754A53
:1026A00043F4803313601DE07B685B68B3F5A02FB3
:1026B0000CD1704B1B686F4A43F4802313606D4B41
:1026C0001B686C4A43F4803313600BE0694B1B6852
:1026D000684A23F480331360664B1B68654A23F411
:1026E000802313607B685B68002B13D0FFF7EEFC40
:1026F000386108E0FFF7EAFC02463B69D31A642B15
:1027000001D9032307E25B4B1B6803F40033002B62
:10271000F0D014E0FFF7DAFC386108E0FFF7D6FCF0
:1027200002463B69D31A642B01D90323F3E1514BD1
:102730001B6803F40033002BF0D100E000BF7B687E
:102740001B6803F00203002B63D04A4B9B6803F025
:102750000C03002B0BD0474B9B6803F00C03082B9A
:102760001CD1444B5B6803F48003002B16D1414B12
:102770001B6803F00203002B05D07B68DB68012B8C
:1027800001D00123C7E13B4B1B6823F0F8027B68B3
:102790001B69DB00374913430B603AE07B68DB6859
:1027A000002B20D0344B01221A60FFF78FFC3861D8
:1027B00008E0FFF78BFC02463B69D31A022B01D9D4
:1027C0000323A8E12B4B1B6803F00203002BF0D07E
:1027D000284B1B6823F0F8027B681B69DB00254946
:1027E00013430B6015E0244B00221A60FFF76EFCC8
:1027F000386108E0FFF76AFC02463B69D31A022BF6
:1028000001D9032387E11B4B1B6803F00203002B54
:10281000F0D17B681B6803F00803002B36D07B687F
:102820005B69002B16D0154B01221A60FFF74EFC96
:10283000386108E0FFF74AFC02463B69D31A022BD5
:1028400001D9032367E10B4B5B6F03F00203002BFD
:10285000F0D01BE0094B00221A60FFF737FC38610B
:102860000EE0FFF733FC02463B69D31A022B07D96F
:10287000032350E10038024000004742800E4742E7
:10288000884B5B6F03F00203002BEAD17B681B6867
:1028900003F00403002B00F097800023FB75814BAD
:1028A0001B6C03F08053002B0FD10023BB607D4BCA
:1028B0001B6C7C4A43F0805313647A4B1B6C03F00F
:1028C0008053BB60BB680123FB75774B1B6803F427
:1028D0008073002B18D1744B1B68734A43F48073C8
:1028E0001360FFF7F3FB386108E0FFF7EFFB0246E8
:1028F0003B69D31A022B01D903230CE16A4B1B68F5
:1029000003F48073002BF0D07B689B68012B06D109
:10291000644B1B6F634A43F0010313671CE07B6841
:102920009B68052B0CD15F4B1B6F5E4A43F0040381
:1029300013675C4B1B6F5B4A43F0010313670BE0AB
:10294000584B1B6F574A23F001031367554B1B6FFE
:10295000544A23F0040313677B689B68002B15D04F
:10296000FFF7B4FB38610AE0FFF7B0FB02463B69B2
:10297000D31A41F28832934201D90323CBE0494B69
:102980001B6F03F00203002BEED014E0FFF79EFB59
:1029900038610AE0FFF79AFB02463B69D31A41F21D
:1029A0008832934201D90323B5E03E4B1B6F03F0FD
:1029B0000203002BEED1FB7D012B05D1394B1B6CA3
:1029C000384A23F0805313647B689B69002B00F026
:1029D000A180344B9B6803F00C03082B5CD07B6810
:1029E0009B69022B41D1314B00221A60FFF76EFB2D
:1029F000386108E0FFF76AFB02463B69D31A022BF5
:102A000001D9032387E0274B1B6803F00073002BD9
:102A1000F0D17B68DA697B681B6A1A437B685B6A62
:102A20009B011A437B689B6A5B08013B1B041A43AA
:102A30007B68DB6A1B061B4913434B601B4B01225F
:102A40001A60FFF743FB386108E0FFF73FFB0246DF
:102A50003B69D31A022B01D903235CE0114B1B689D
:102A600003F00073002BF0D054E0104B00221A60EA
:102A7000FFF72CFB386108E0FFF728FB02463B69B3
:102A8000D31A022B01D9032345E0064B1B6803F040
:102A90000073002BF0D13DE07B689B69012B07D1CF
:102AA000012338E0003802400070004060004742D7
:102AB0001B4B5B68FB607B689B69012B28D0FB6824
:102AC00003F480027B68DB699A4221D1FB6803F042
:102AD0003F027B681B6A9A421AD1FA6847F6C073B4
:102AE00013407A68526A9201934211D1FB6803F451
:102AF00040327B689B6A5B08013B1B049A4207D10A
:102B0000FB6803F070627B68DB6A1B069A4201D0A7
:102B1000012300E0002318461837BD4680BD00BFE2
:102B20000038024080B584B000AF786039607B68BF
:102B3000002B01D10123CCE0684B1B6803F0070395
:102B40003A689A420CD9654B3A68D2B21A70634B14
:102B50001B6803F007033A689A4201D00123B8E0EA
:102B60007B681B6803F00203002B20D07B681B6886
:102B700003F00403002B05D0594B9B68584A43F4DB
:102B8000E05393607B681B6803F00803002B05D0BB
:102B9000534B9B68524A43F460439360504B9B688D
:102BA00023F0F0027B689B684D4913438B607B6880
:102BB0001B6803F00103002B44D07B685B68012B8A
:102BC00007D1474B1B6803F40033002B19D10123B5
:102BD0007FE07B685B68022B03D07B685B68032B1C
:102BE00007D13F4B1B6803F00073002B09D1012371
:102BF0006FE03B4B1B6803F00203002B01D1012364
:102C000067E0374B9B6823F003027B685B683449BD
:102C100013438B60FFF75AFAF8600AE0FFF756FAA1
:102C20000246FB68D31A41F28832934201D903234A
:102C30004FE02B4B9B6803F00C027B685B689B00AA
:102C40009A42EBD1254B1B6803F007033A689A427E
:102C50000CD2224B3A68D2B21A70204B1B6803F098
:102C600007033A689A4201D0012332E07B681B686F
:102C700003F00403002B08D0194B9B6823F4E052A7
:102C80007B68DB68164913438B607B681B6803F025
:102C90000803002B09D0124B9B6823F460427B6829
:102CA0001B69DB000E4913438B6000F021F80246DC
:102CB0000B4B9B681B0903F00F030A49CB5C22FAFC
:102CC00003F3094A1360094B1B681846FFF7BAF96A
:102CD000002318461037BD4680BD00BF003C0240AF
:102CE000003802402868000800000020040000208E
:102CF0002DE9B04F90B000AF00237B630023FB634E
:102D000000233B630023BB63594B9B6803F00C0318
:102D1000082B0DD0082B00F2A180002B02D0042B31
:102D200003D09BE0534BBB639BE0534BBB6398E0EA
:102D30004F4B5B6803F03F037B634D4B5B6803F4D1
:102D40008003002B28D04A4B5B689B0900223B6222
:102D50007A623B6AC3F308000021474B03FB01F290
:102D6000002300FB03F31344434AA0FB0212FA6260
:102D70000A46BA62FA6A1344FB627B6B0022BB61AB
:102D8000FA61D7E90623D7E90A01FDF765FF024694
:102D90000B461346FB6353E0354B5B689B090022EF
:102DA0003B617A613B69C3F3080A4FF0000B52465E
:102DB0005B464FF000004FF00001590141EAD2613B
:102DC000500102460B46B2EB0A0863EB0B094FF0C9
:102DD00000024FF000034FEA891343EA98634FEA79
:102DE0008812B2EB080463EB09054FF000024FF0C4
:102DF0000003EB0043EA5473E20014461D4614EB53
:102E00000A033B6045EB0B037B604FF000024FF081
:102E10000003D7E9004529468B02214643EA915336
:102E200021468A02104619467B6B0022BB60FA607D
:102E3000D7E90223FDF710FF02460B461346FB635A
:102E40000B4B5B681B0C03F0030301335B003B631C
:102E5000FA6B3B6BB2FBF3F3BB6302E0054BBB6366
:102E600000BFBB6B18464037BD46BDE8B08F00BF02
:102E7000003802400024F400001BB70080B400AF0B
:102E8000034B1B681846BD465DF8047B704700BFC6
:102E90000000002080B500AFFFF7F0FF0246054BB1
:102EA0009B689B0A03F007030349CB5C22FA03F3F8
:102EB000184680BD003802403868000880B500AF71
:102EC000FFF7DCFF0246054B9B685B0B03F0070333
:102ED0000349CB5C22FA03F3184680BD0038024058
:102EE0003868000880B582B000AF78607B68002B3E
:102EF00001D101237BE07B685B6A002B08D17B68F2
:102F00005B68B3F5827F09D07B680022DA6105E057
:102F10007B6800221A617B6800225A617B6800226C
:102F20009A627B6893F85130DBB2002B06D17B6844
:102F3000002283F850207868FEF7C2FE7B680222E8
:102F400083F851207B681B681A687B681B6822F035
:102F500040021A607B685B6803F482727B689B683E
:102F600003F404431A437B68DB6803F400631A43E9
:102F70007B681B6903F002031A437B685B6903F0FB
:102F800001031A437B689B6903F400731A437B684F
:102F9000DB6903F038031A437B681B6A03F0800384
:102FA00042EA03017B689B6A03F400527B681B685A
:102FB0000A431A607B689B691B0C03F004017B6861
:102FC0005B6A03F010027B681B680A435A607B68E7
:102FD0001B68DA697B681B6822F40062DA617B682F
:102FE00000225A657B68012283F85120002318468D
:102FF0000837BD4680BD80B58CB000AFF860B960C1
:103000007A607B800123FB62002387F82B30FB680A
:1030100093F85030012B01D102238AE1FB68012291
:1030200083F85020FFF752F87862FB6893F851302C
:1030300087F82330FB685B68FB617B887B8397F8AC
:103040002330012B0FD0FB69B3F5827F07D1FB68DA
:103050009B68002B03D197F82330042B03D0022365
:1030600087F82B305BE1BB68002B05D07B68002B19
:1030700002D07B88002B03D1012387F82B304EE14F
:10308000FB6893F85130DBB2042B03D0FB680522B8
:1030900083F85120FB6800225A65FB687A689A63BE
:1030A000FB687A88DA87FB687A889A87FB68BA684F
:1030B0001A63FB687A88DA86FB687A889A86FB68E6
:1030C00000221A64FB6800225A64FB681B681B68B4
:1030D00003F04003402B07D0FB681B681A68FB68AD
:1030E0001B6842F040021A60FB68DB68B3F5006FB2
:1030F00078D1FB685B68002B02D07B8B012B66D1FB
:10310000FB681B6B1A88FB681B68DA60FB681B6B2B
:103110009A1CFB681A63FB68DB8E9BB2013B9AB278
:10312000FB68DA8653E0FB681B689B6803F00203C8
:10313000022B1BD1FB68DB8E9BB2002B16D0FB6AE7
:10314000012B13D1FB681B6B1A88FB681B68DA60C4
:10315000FB681B6B9A1CFB681A63FB68DB8E9BB2D7
:10316000013B9AB2FB68DA860023FB62FB681B68AE
:103170009B6803F00103012B19D1FB68DB8F9BB225
:10318000002B14D0FB681B68DA68FB689B6B92B25B
:103190001A80FB689B6B9A1CFB689A63FB68DB8F49
:1031A0009BB2013B9AB2FB68DA870123FB62FEF710
:1031B0008DFF02467B6AD31ABA6B9A4207D8BB6B63
:1031C000B3F1FF3F03D0032387F82B30A7E0FB6860
:1031D000DB8E9BB2002BA6D1FB68DB8F9BB2002B52
:1031E000A1D17CE0FB685B68002B02D07B8B012BBC
:1031F0006BD1FB681A6BFB681B680C3312781A7072
:10320000FB681B6B5A1CFB681A63FB68DB8E9BB266
:10321000013B9AB2FB68DA8657E0FB681B689B6843
:1032200003F00203022B1CD1FB68DB8E9BB2002B48
:1032300017D0FB6A012B14D1FB681A6BFB681B6863
:103240000C3312781A70FB681B6B5A1CFB681A63EC
:10325000FB68DB8E9BB2013B9AB2FB68DA860023E7
:10326000FB62FB681B689B6803F00103012B19D10B
:10327000FB68DB8F9BB2002B14D0FB681B68DA68FD
:10328000FB689B6BD2B21A70FB689B6B5A1CFB6885
:103290009A63FB68DB8F9BB2013B9AB2FB68DA87CB
:1032A0000123FB62FEF712FF02467B6AD31ABA6B58
:1032B0009A4203D8BB6BB3F1FF3F02D1BB6B002B2B
:1032C00003D1032387F82B3029E0FB68DB8E9BB208
:1032D000002BA2D1FB68DB8F9BB2002B9DD17A6AB9
:1032E000B96BF86800F0B2F80346002B06D0012352
:1032F00087F82B30FB6820225A6510E0FB689B683A
:10330000002B0BD100237B61FB681B68DB687B61B2
:10331000FB681B689B687B617B6900E000BFFB6802
:10332000012283F85120FB68002283F8502097F88F
:103330002B3018463037BD4680BD000080B588B0C0
:1033400000AFF860B9603B601346FB71FEF7BEFE4C
:103350000246BB6A9B1A3A681344FB61FEF7B6FE4D
:10336000B861394B1B685B011B0DFA6902FB03F363
:103370007B6154E03B68B3F1FF3F50D0FEF7A6FEFF
:103380000246BB69D31AFA699A4202D9FB69002B3B
:103390003DD1FB681B685A68FB681B6822F0E0029D
:1033A0005A60FB685B68B3F5827F11D1FB689B684C
:1033B000B3F5004F04D0FB689B68B3F5806F07D16D
:1033C000FB681B681A68FB681B6822F040021A60E1
:1033D000FB689B6AB3F5005F0FD1FB681B681A6836
:1033E000FB681B6822F400521A60FB681B681A68AD
:1033F000FB681B6842F400521A60FB68012283F8E4
:103400005120FB68002283F85020032317E07B69DA
:10341000002B01D10023FB617B69013B7B61FB68D1
:103420001B689A68BB681340BA689A420CBF0123B4
:103430000023DBB21A46FB799A429BD1002318463F
:103440002037BD4680BD00BF0000002080B588B099
:1034500002AFF860B9607A601B4B1B681B4AA2FB85
:1034600003235B0D4FF47A7202FB03F37B61FB686D
:103470005B68B3F5827F12D17B680093BB68002242
:103480008021F868FFF75AFF0346002B16D0FB682F
:103490005B6D43F02002FB685A6503230FE07B69F4
:1034A000002B0AD07B69013B7B61FB681B689B6832
:1034B00003F08003802BF2D000E000BF0023184609
:1034C0001837BD4680BD00BF00000020819F5E16FA
:1034D00080B582B000AF78607B68002B01D10123FA
:1034E0003FE07B6893F83D30DBB2002B06D17B6870
:1034F000002283F83C207868FEF72AFC7B682422AF
:1035000083F83D207B681B68DA687B681B6822F4BF
:103510000052DA60786800F029F97B681B681A6944
:103520007B681B6822F490421A617B681B685A69A9
:103530007B681B6822F02A025A617B681B68DA6884
:103540007B681B6842F40052DA607B6800221A64D0
:103550007B68202283F83D207B68202283F83E2070
:10356000002318460837BD4680BD80B58AB002AF3B
:10357000F860B9603B601346FB8000237B61FB6809
:1035800093F83D30DBB2202B7CD1BB68002B02D0FE
:10359000FB88002B01D1012375E0FB6893F83C30D8
:1035A000012B01D102236EE0FB68012283F83C204D
:1035B000FB6800221A64FB68212283F83D20FEF795
:1035C00085FD7861FB68FA889A84FB68FA88DA845A
:1035D000FB689B68B3F5805F08D1FB681B69002B13
:1035E00004D10023FB61BB68BB6103E0BB68FB61E6
:1035F0000023BB61FB68002283F83C202AE03B6883
:1036000000937B6900228021F86800F040F80346AF
:10361000002B01D0032336E0FB69002B0BD1BB69E3
:103620001B881A46FB681B68C2F308025A60BB6914
:103630000233BB6107E0FB691A78FB681B685A60BC
:10364000FB690133FB61FB68DB8C9BB2013B9AB2E7
:10365000FB68DA84FB68DB8C9BB2002BCFD13B6824
:1036600000937B6900224021F86800F010F80346BF
:10367000002B01D0032306E0FB68202283F83D20C5
:10368000002300E0022318462037BD4680BD80B5E8
:1036900090B000AFF860B9603B601346FB7150E03A
:1036A000BB6CB3F1FF3F4CD0BB6C002B07D0FEF7D7
:1036B0000DFD02463B68D31ABA6C9A4241D2FB68B0
:1036C0001B680C33BB62BB6A53E8003F7B627B6ABA
:1036D00023F4D073FB63FB681B680C33FA6B7A63CB
:1036E0003B63396B7A6B41E80023FB62FB6A002B7A
:1036F000E5D1FB681B6814337B617B6953E8003FAD
:103700003B613B6923F00103BB63FB681B68143317
:10371000BA6B3A62FB61F9693A6A41E80023BB611E
:10372000BB69002BE5D1FB68202283F83D20FB68B4
:10373000202283F83E20FB68002283F83C200323EC
:103740000FE0FB681B681A68BB681340BA689A42AE
:103750000CBF01230023DBB21A46FB799A429FD0AB
:10376000002318464037BD4680BD00002DE9B04F0C
:10377000C0B000AFC7F8F400D7F8F4301B681B697D
:1037800023F44050D7F8F430D968D7F8F4301A68E9
:1037900040EA01031361D7F8F4309A68D7F8F4309F
:1037A0001B691A43D7F8F4305B691A43D7F8F43031
:1037B000DB691343C7F8F830D7F8F4301B68DB68CF
:1037C00023F4164121F00C01D7F8F4301A68D7F829
:1037D000F8300B43D360D7F8F4301B685B6923F4EF
:1037E0004070D7F8F4309969D7F8F4301A6840EA95
:1037F00001035361D7F8F4301A688F4B9A4205D011
:10380000D7F8F4301A688D4B9A4204D1FFF756FB73
:10381000C7F8FC0003E0FFF73DFBC7F8FC00D7F852
:10382000F430DB69B3F5004F40F00C81D7F8FC3081
:103830000022C7F8E830C7F8EC20D7E93A4522461D
:103840002B469118B9655B41FB65D7E916232146E4
:1038500012EB0108294643EB01094FF000024FF03B
:1038600000034FEAC90343EA58734FEAC80290467F
:103870009946234618EB0303C7F8E0302B4649EB83
:103880000303C7F8E430D7F8F4305B680022C7F8C8
:10389000D830C7F8DC20D7E936120B46DB183B6579
:1038A000134642EB03037B65D7E91423D7E93801BC
:1038B000FDF7D2F902460B46614BA3FB02235B09DD
:1038C0001C01D7F8FC300022C7F8D030C7F8D4204C
:1038D000D7E9348942464B469118B9645B41FB6491
:1038E000D7E91223414612EB010A494643EB010B8B
:1038F0004FF000024FF000034FEACB0343EA5A7344
:103900004FEACA0292469B4643461AEB0303C7F8A6
:10391000C8304B464BEB0303C7F8CC30D7F8F43034
:103920005B680022C7F8C030C7F8C420D7E930125E
:103930000B46DB183B64134642EB03037B64D7E979
:103940001023D7E93201FDF787F902460B461146ED
:103950003B4BA3FB01235B09642202FB03F3CB1A5D
:10396000DB0003F13202364BA3FB02235B095B0051
:1039700003F4F8731C44D7F8FC300022C7F8B830C1
:10398000C7F8BC20D7E92E8942464B469118B96347
:103990005B41FB63D7E90E23414651183963494621
:1039A0004B417B634FF000024FF00003D7E90CABB3
:1039B0005946CB00514643EA51735146CA0010465E
:1039C0001946034642469B18C7F8B0304B460A4694
:1039D00042EB0303C7F8B430D7F8F4305B68002239
:1039E000C7F8A830C7F8AC20D7E92A120B46DB1875
:1039F000BB62134642EB0303FB62D7E90A23D7E914
:103A00002C01FDF729F902460B460D4BA3FB0213CF
:103A10005B09642101FB03F3D31ADB003233084A4C
:103A2000A2FB03235B0903F00702D7F8F4301B68FD
:103A300022449A6005E100BF0010014000140140DB
:103A40001F85EB51D7F8FC300022C7F8A030C7F82B
:103A5000A420D7E9288942464B46911839625B4138
:103A60007B62D7E9082341465418494643EB0105D8
:103A70004FF000024FF00003EB0043EA5473E20002
:103A800014461D464346E318C7F898304B4645EBAD
:103A90000303C7F89C30D7F8F4305B680022C7F8FE
:103AA0009030C7F894204FF000024FF00003D7E9A0
:103AB000244529468B00214643EA917321468A001A
:103AC000D7E92601FDF7C8F802460B46604BA3FB79
:103AD00002235B091C01D7F8FC300022C7F88830AC
:103AE000C7F88C20D7E9228942464B469118B96124
:103AF0005B41FB61D7E906234146511839614946CC
:103B00004B417B614FF000024FF00003D7E904AB5B
:103B10005946CB00514643EA51735146CA001046FC
:103B20001946034642469B18C7F880304B460A4662
:103B300042EB0303C7F88430D7F8F4305B68002207
:103B4000BB67FA674FF000024FF00003D7E91E8908
:103B500049468B00414643EA917341468A00D7E9C2
:103B60002001FDF779F802460B46394BA3FB0213FF
:103B70005B09642101FB03F3D31A1B013233344A7E
:103B8000A2FB03235B0903F0F0031C44D7F8FC30CD
:103B900000223B677A67D7E91C8942464B46911859
:103BA000B9605B41FB60D7E9022341465118396097
:103BB00049464B417B604FF000024FF00003D7E9CC
:103BC00000AB5946CB00514643EA51735146CA00F7
:103BD00010461946034642469B18BB664B460A46AA
:103BE00042EB0303FB66D7F8F4305B6800223B66C8
:103BF0007A664FF000024FF00003D7E91889494672
:103C00008B00414643EA917341468A00D7E91A0185
:103C1000FDF722F802460B460D4BA3FB02135B098E
:103C2000642101FB03F3D31A1B013233084AA2FBC0
:103C300003235B0903F00F02D7F8F4301B6822441A
:103C40009A6000BF07F58077BD46BDE8B08F00BF22
:103C50001F85EB51014B1868704700BF0C00002016
:103C600070B50D4D0D4C641BA4100026A64209D161
:103C70000B4D0C4C02F0C2FD641BA4100026A642A2
:103C800005D170BD55F8043B98470136EEE755F86D
:103C9000043B98470136F2E7246C0008246C0008C6
:103CA000246C0008286C000802440346934200D1AB
:103CB000704703F8011BF9E72DE9FF4755EC104B5E
:103CC000002D0E4619462B46BBBF05F100431D468D
:103CD00000232D230B700D9BDDF830A0914623F0BF
:103CE0002008BCBF22461446B8F1460F05D0B8F1F3
:103CF000450F00D10136022100E0032103AB0193FF
:103D000002AB009345EC104B5346324600F018FED0
:103D1000B8F1470F074602D119F0010F22D0B8F1D0
:103D2000460F07EB060910D13B78302B0AD1002251
:103D3000002320462946FCF7CFFE18B9C6F101063C
:103D4000CAF80060DAF800309944002200232046C7
:103D50002946FCF7C1FE08B1CDF80C903022039B38
:103D60004B4507D3039B0E9ADB1B3846136004B008
:103D7000BDE8F087591C03911A70F0E7F7B50346C8
:103D80000029B8BF494203F8022BB4BF2D222B22D1
:103D9000092942702ADD0DF10704A4460A27A64628
:103DA0000A4691FBF7F607FB16153035632A04F136
:103DB000FF340EF8015C3146F1DC3031AEF1020522
:103DC00004F8011C441C294661450AD30DF109027F
:103DD000A2EB0E02654588BF00221344181A03B0F7
:103DE000F0BD11F8012B04F8012FEDE7302330313D
:103DF0008370C170031DF1E72DE9F04F2DED028BAB
:103E00008DB00C46DDF8608016461F46054601F071
:103E10003DFDD0F800A05046FCF7E2F900230A93DC
:103E200023680593D8F8003094F818B0073323F0CE
:103E3000070303F10802C8F80020D3E90023C4E90E
:103E40001223D4E9128929F000430793CDF8188092
:103E500008EE100A9F4BDDE906014FF0FF32FCF738
:103E60006DFE88BBDDE906019A4B4FF0FF32FCF78F
:103E700047FE48BB0022002340464946FCF736FE79
:103E800010B12D2384F84330934B9448BBF1470F76
:103E900094BF9846804603232361059B23F00402C8
:103EA00022604FF00009009733460BAA21462846AE
:103EB00000F0D8F9013040F090804FF0FF300DB0A5
:103EC000BDEC028BBDE8F08F42464B46404649466A
:103ED000FCF734FE40B14B46002BBCBF2D2384F8C9
:103EE00043307F487F4BD1E763680BF0DF020692D7
:103EF0005A1C3FD106236360059B616843F48062CE
:103F0000002303930AABCDE901B309AB49EC108B55
:103F1000009322600DF123032846FFF7CDFE069B98
:103F20000999472B804608D1C81C02DB6368994277
:103F300041DDABF1020B5FFA8BFBBBF1650F20D8C3
:103F400001395A4604F150000991FFF717FF0A9A08
:103F50001318012A8146236102DC2268D20701D5A9
:103F6000013323619DF82330002B9CD02D2384F84E
:103F7000433098E7069A472ABED1002BBCD10123D3
:103F8000B9E7BBF1660F18D1002963680BDD216129
:103F900013B92268D00702D501330B442361A16510
:103FA0004FF00009DEE713B92268D20701D50233CA
:103FB000F4E70123F2E74FF0670B0A9B994205DB18
:103FC00023682161D807EAD54B1CE7E70029D4BF55
:103FD000C1F1020201221344E0E723685A0507D425
:103FE0002369424631462846B84701302CD164E760
:103FF000BBF1650F40F2E080D4E9120100220023FA
:10400000FCF76AFD002834D0374A012331462846A0
:10401000B84701303FF451AFDDE909239A4202DB92
:104020002368D80710D518EE103A52463146284674
:10403000B84701303FF441AF4FF0000804F11A09CE
:104040000A9B013B434509DC23689B0700F105817E
:10405000E0680B9B9842B8BF184630E701234A46F8
:1040600031462846B84701303FF427AF08F1010830
:10407000E6E7099B002B39DC1B4A01233146284621
:10408000B84701303FF419AFDDE90923134302D1EA
:104090002368D907D8D518EE103A5246314628463B
:1040A000B84701303FF409AF4FF0000904F11A0A94
:1040B000099B5B424B4501DC0A9B92E70123524678
:1040C00031462846B84701303FF4F7AE09F10109FF
:1040D000EEE700BFFFFFEF7F446800084868000874
:1040E000506800084C680008546800080A9AA36DDC
:1040F0009A42A8BF1A46002A914637DC4FF0000BBF
:1041000029EAE97904F11A02A36D0593A3EB0903E7
:104110005B4533DCDDE909239A423BDB2368DA07A0
:1041200038D40A9B059A09999A1AA3EB010991457B
:10413000A8BF9146B9F1000F35DC4FF0000829EA1D
:10414000E97904F11A0ADDE909239B1AA3EB0903B3
:1041500043457FF779AF0123524631462846B84799
:1041600001303FF4AAAE08F10108ECE713463146EE
:1041700042462846B8470130C0D19EE60123314669
:1041800028460592B84701303FF497AE059A0BF1E7
:10419000010BB9E718EE103A524631462846B847A7
:1041A0000130BED189E6059A4B4642443146284645
:1041B000B8470130C1D180E60A9A012A01DCDB0749
:1041C00038D50123424631462846B84701303FF4EE
:1041D00074AE18EE103A524631462846B8470130C0
:1041E0003FF46BAED4E9120100220023FCF774FC0B
:1041F000D8B90A9B08F10102013B31462846B8476D
:1042000001300ED159E60123524631462846B847BF
:1042100001303FF452AE08F101080A9B013B4345CF
:10422000F1DC4B4604F15002DCE64FF0000804F1EB
:104230001A0AF2E701234246DFE701234A463146E4
:104240002846B84701303FF438AE08F10108E3686A
:104250000B995B1A4345F0DCFAE64FF0000804F1D5
:104260001909F4E72DE9F047164699468A680B6963
:10427000DDF820809342B8BF1346336091F84320A5
:1042800007460C460AB1013333602368990642BFE2
:10429000336802333360256815F0060506D104F152
:1042A000190AE36832689B1AAB4226DC94F8432073
:1042B000131E226818BF012392062BD404F1430277
:1042C00049463846C04701301ED02368E568326849
:1042D00003F00603042B08BFAD1AA36822690CBFC4
:1042E00025EAE57500259342C4BF9B1AED18002608
:1042F0001A34B5421AD1002008E00123524649463B
:104300003846C047013003D14FF0FF30BDE8F08799
:104310000135C6E7E1185A1C302081F843002244D9
:1043200094F8451082F843100233C7E70123224670
:1043300049463846C0470130E6D00136D9E700008B
:104340002DE9FF470F7E0C9D782F914680460C4645
:104350009A4601F1430207D8622F0AD8002F00F0D5
:10436000D880582F00F0A38004F1420584F84270F1
:104370003AE0A7F16303152BF6D801A151F823F019
:10438000D9430008ED430008694300086943000869
:104390006943000869430008ED43000869430008C9
:1043A000694300086943000869430008F9440008AC
:1043B0001D440008DB440008694300086943000805
:1043C0001B450008694300081D44000869430008B4
:1043D00069430008E34400082B681A1D1B682A6023
:1043E00004F1420584F842300123A3E020682968E3
:1043F000060601F104030AD50E682B60002E03DACD
:104400002D23764284F843305E480A2319E00E6873
:104410002B6010F0400F18BF36B2EFE72B68206812
:10442000191D2960010601D51E6802E04606FBD56C
:104430001E8854486F2F0CBF08230A23002184F8DC
:1044400043106568A560002DA2BF216821F004011A
:1044500021600EB9002D4DD01546B6FBF3F103FBDC
:104460001167C75D05F8017D3746BB420E46F4D99A
:10447000082B0BD12368DE0708D5236961689942B0
:10448000DEBF302305F8013C05F1FF35521B2261E8
:10449000CDF800A04B4603AA21464046FFF7E2FEB6
:1044A00001304CD14FF0FF3004B0BDE8F087354803
:1044B00081F845702968236851F8046B29601D064E
:1044C00014D5DF0744BF43F0200323601EB92368DF
:1044D00023F0200323601023B0E7236843F0200378
:1044E00023607823284884F84530E3E7590648BF1D
:1044F000B6B2E6E71546BBE72B6826686169181D6A
:10450000286035061B6801D5196002E07006FBD5EE
:104510001980002323611546BAE72B681A1D2A600B
:104520001D68626800212846FBF762FE08B1401B47
:10453000606063682361002384F84330A8E723693F
:104540002A4649464046D0470130ABD023689B07F6
:1045500013D4E068039B9842B8BF1846A4E7012330
:10456000324649464046D04701309BD00135E3688A
:1045700003995B1AAB42F2DCEBE7002504F1190664
:10458000F5E700BF56680008676800080FB40A4BDB
:1045900013B51C6824B1A36913B9204601F0D8F8FB
:1045A00005AB049AA1680193204601F095FE02B084
:1045B000BDE8104004B070470C00002070B50E46F6
:1045C000054618B183690BB901F0C2F8AB69AC6854
:1045D00013B9284601F0BCF82C4B9C4220D16C68E2
:1045E000636EDB0705D4A389980502D4A06D01F0A2
:1045F00052F9A38919071DD52369DBB1013EA368D0
:1046000016F8011F013BA36039BB002B38DA2246A4
:104610000A21284600F048F8013011D00A2511E09F
:104620001B4B9C4201D1AC68DAE71A4B9C4208BF95
:10463000EC68D5E72146284600F088F80028DDD050
:104640004FF0FF35636EDA0705D4A3899B0502D4CA
:10465000A06D01F021F9284670BD002B04DAA26993
:104660009A4206DC0A2904D023685A1C2260197079
:10467000C5E72246284600F017F80130BFD1DFE732
:1046800023680A255A1C22601D70DBE72869000890
:104690004869000808690008024B01461868FFF7DE
:1046A0008DBF00BF0C000020F8B50E46144605462D
:1046B00018B183690BB901F04BF8214B9C422BD107
:1046C0006C68A369A360A3891A072FD523696BB30C
:1046D00023692068C01A6369F6B28342374604DC56
:1046E0002146284600F0A0FF30BBA368013BA36031
:1046F00023685A1C22601E7063690130834204D013
:10470000A389DB0706D50A2E04D12146284600F0EE
:104710008BFF88B93846F8BD0A4B9C4201D1AC6882
:10472000CFE7094B9C4208BFEC68CAE72146284600
:1047300000F00CF80028CBD04FF0FF37EAE700BFBD
:10474000286900084869000808690008324B70B5FC
:104750001D6806460C4625B1AB6913B9284600F022
:10476000F7FF2E4B9C420FD16C68A389B4F90C2043
:1047700019072CD4DD0611D40923336042F040031D
:10478000A3814FF0FF303EE0254B9C4201D1AC6845
:10479000EBE7244B9C4208BFEC68E6E7580712D5CC
:1047A000616B41B104F14403994202D0304601F0FB
:1047B00089FC00236363A38923F02403A3810023DE
:1047C000636023692360A38943F00803A3812369FD
:1047D0004BB9A38903F42073B3F5007F03D02146BE
:1047E000304601F07FF8A089B4F90C2010F00103E5
:1047F0000AD00023A36063695B42A361236943B9C4
:1048000010F08000BAD170BD810758BF6369A36002
:10481000F4E70020F7E700BF0C000020286900083B
:1048200048690008086900082DE9F74F03690C6919
:10483000A3420746C0F28180013C01F1140800F157
:10484000140505EB8403019358F8243055F824200F
:1048500001339A424FEA840B08EB8409B2FBF3F66A
:1048600031D34FF0000E4046AC46F24650F8042BD0
:1048700093B206FB03E34FEA134E9BB2AAEB03038A
:10488000DCF800A0120C13FA8AF306FB02E2009394
:10489000009B4FEA124E92B2C2EB1A4202EB234245
:1048A000BDF80030814543EA02434CF8043B4FEA2F
:1048B000224ADBD255F80B302BB9019B043B9D42B9
:1048C0001A462ED33C61384601F0E4FA002824DB76
:1048D000013628464FF0000C58F8042BD0F800E0C1
:1048E00093B2ACEB0303120C13FA8EF3C2EB1E422D
:1048F00002EB23429BB243EA0243C14540F8043B2A
:104900004FEA224CE8D255F8242005EB840322B963
:10491000043B9D421A460AD33C61304603B0BDE8D1
:10492000F08F1268043B002ACCD1013CC7E7126823
:10493000043B002AF0D1013CEBE70020EEE7000049
:104940002DE9F04F2DED048B57EC106B93B0456AB9
:10495000DDF88080069110EE10AA044609920C93AF
:10496000BB4675B9102000F0FDFF0246606220B919
:10497000A74BEA21A74801F045FEC0E901550560B3
:10498000C560636A196851B15A684A60012393404F
:104990008B60204601F03CF8636A00221A603B1EDF
:1049A000AABF002323F0004BC8F800309A4BBCBFCD
:1049B0000122C8F8002033EA0B031BD10C9A42F203
:1049C0000F731360CBF31303334300F09285219BE5
:1049D00063B9924B22E0924B01930833219A136002
:1049E000019813B0BDEC048BBDE8F08F8B4B0193A5
:1049F0000333F3E70022002350465946FCF76CF8D6
:104A00004BEC19AB804658B10C9A01231360219BE3
:104A1000002B00F06B8583481860431E0193DFE78D
:104A20004BEC10AB10AA11A9204601F0D9FACBF338
:104A30000A5508EE100A002D00F0848019EE903A15
:104A4000C3F3130343F07F57564647F44017A5F2CC
:104A5000FF35CDF83880744B002230463946FBF7DD
:104A60001BFC65A3D3E90023FBF7CEFD64A3D3E9C8
:104A70000023FBF713FC064628460F46FBF75AFDBA
:104A800061A3D3E90023FBF7BFFD02460B46304686
:104A90003946FBF703FC06460F46FCF765F8002293
:104AA0000090002330463946FCF720F850B10098BA
:104AB000FBF740FD32463B46FCF70EF810B9009B71
:104AC000013B0093009B162B5AD8009A574B03EBDF
:104AD000C203D3E9002351EC190BFCF707F80028B7
:104AE00050D0009B013B009300230B93109B5D1B58
:104AF0006B1E059345BFC5F10103049300230023FA
:104B00004CBF05930493009B002B3DDB059B009A53
:104B10000A921344059300230793069B092B00F286
:104B20008980052BC4BF043B0693069BA3F10203B7
:104B3000CCBF00250125032B00F28780DFE803F0BE
:104B40002D3A3859DDE910531D4405F23243202B2C
:104B5000C1BFC3F1400305F212400BFA03F326FA7A
:104B600000F0DABFC3F1200306FA03F01843FBF7A5
:104B7000D1FC01230646A1F1F877013D0E936AE7C7
:104B80000123B2E70B90B1E7049B009A9B1A0493B0
:104B90005342079300230A93BFE700230893099B1E
:104BA000002B55DC0123CDE902331A4609920CE0B3
:104BB0000123F3E70023099A0893009B134402930F
:104BC0000133012B0393B8BF0123606A00224260C6
:104BD000042202F114069E4241683DD9204600F0AD
:104BE000D7FE019000283BD1114B02464FF4D571FE
:104BF000C0E60123DFE700BF61436F63A787D23FB1
:104C0000B3C8608B288AC63FFB799F501344D33FBB
:104C1000856800089C6800080000F07F8168000833
:104C200078680008556800080000F83FF06900083F
:104C3000F768000801250023069308954FF0FF331D
:104C4000CDE9023300221223B0E701230893F5E7F0
:104C5000099BCDE90233B8E7013141605200B8E762
:104C6000636A019A1A60039B0E2B00F29D80002D4F
:104C700000F09A80009B002B32DDB74A03F00F034F
:104C800002EBC303D3E90089009BD8054FEA231741
:104C900016D5B24B51EC190BD3E90823FBF7DEFD17
:104CA00007F00F0782468B460325AC4E57B94246A4
:104CB0004B4650465946FBF7D1FD82468B4628E0CD
:104CC0000225F2E7F90708D540464946D6E9002310
:104CD000FBF79AFC0135804689467F100836E5E7E8
:104CE00000F09B80009B9D4F5E429B4B06F00F02A5
:104CF00003EBC203D3E9002351EC190BFBF784FC4F
:104D0000361182468B4600230225002E7AD1002BD5
:104D1000D3D10B9B002B00F08280914B0022504698
:104D20005946FBF7E3FE002879D0039B002B76D091
:104D3000029B002B36DD009B504659465F1E002229
:104D4000884BFBF761FC029E82468B460135284664
:104D5000FBF7F0FB52465B46FBF756FC824B00220A
:104D6000FBF79CFAD046D9468246A1F1507B002E33
:104D700058D17E4B002240464946FBF78DFA5246F9
:104D80005B4680468946FBF7CFFE002840F09582BF
:104D900052460BF1004340464946FBF7A7FE002868
:104DA00040F089825BEC19AB119B002BC0F248816B
:104DB000009A0E2A00F34481674B03EBC203D3E948
:104DC0000089099B002B80F2D580039B002B00F308
:104DD000D18040F06F82654B002240464946FBF788
:104DE00013FC52465B46FBF795FE039E37460028B0
:104DF00040F04582019D312305F8013B009B0133C2
:104E0000009340E2F20705D5D7E90023FBF7FCFB4E
:104E1000013501237610083777E7022579E7009FEF
:104E2000039E94E701994C4B31440D91089903EB93
:104E3000C60353E90223002943D04D490020FBF764
:104E40000DFD52465B46FBF727FA019D82468B46D5
:104E500049464046FBF788FE0646FBF76BFB0246D9
:104E60000B4640464946FBF717FA303605F8016B0A
:104E700052465B4680468946FBF738FE002863D1E0
:104E800042464B4636490020FBF706FA52465B463F
:104E9000FBF72CFE002840F0B5800D9B9D4281D091
:104EA000304B002250465946FBF7AEFB2D4B824655
:104EB0008B46404649460022FBF7A6FB80468946C2
:104EC000C6E750465946FBF79FFB0D9B019D0F938C
:104ED00082468B4649464046FBF746FE0646FBF7B0
:104EE00029FB303602460B4640464946FBF7D4F9CB
:104EF00005F8016B0D9B9D42804689464FF00002EC
:104F000024D11B4B50465946FBF7C8F902460B46C5
:104F100040464946FBF708FE002873D152465B46DF
:104F200013490020FBF7B8F902460B4640464946B4
:104F3000FBF7DCFD00283FF435AF0F9D6B1E0F9390
:104F400015F8013C302BF8D0009749E0054BFBF7F2
:104F50005BFB80468946BDE7F0690008C869000828
:104F60000000F03F0000244000001C4000001440FE
:104F70000000E03F019D56465F4642464B463046A4
:104F80003946FBF76BFCFBF7EFFD8246FBF7D2FAE5
:104F900042464B46FBF738FB02460B463046394645
:104FA0000AF13006FBF778F905F8016B019E039FC3
:104FB000AE1BB74202460B4635D1FBF76FF94246AE
:104FC0004B4606460F46FBF7AFFDD0B942464B466F
:104FD00030463946FBF780FD10B11AF0010F10D1B1
:104FE000204618EE101A00F013FD002300982B70D5
:104FF0000C9B01301860219B002B3FF4F1AC1D602D
:10500000EEE4009F2B461D4613F8012D392A06D1E8
:10501000019A9A42F7D10199302201370A701A7821
:1050200001321A7090E7A64B0022FBF7EDFA00223E
:10503000002306460F46FBF74FFD00289DD0CFE723
:10504000089A002A00F0D780069A012A00F3BA8055
:105050000E9A002A00F0B28003F23343079E049DAB
:10506000049A1A440492059A01211A442046059292
:1050700000F086FD0746002D0CDD059B002B09DDA9
:10508000AB42049AA8BF2B46D21A0492059AED1A95
:10509000D31A0593079B1BB3089B002B00F0AF802E
:1050A000002E13DD39463246204600F029FE18EE68
:1050B000102A01460746204600F078FD18EE101A27
:1050C0008046204600F0A4FC08EE108A079B9A1B3D
:1050D00006D018EE101A204600F012FE08EE100A54
:1050E0000121204600F04CFD0A9B002B064640F3B0
:1050F00088801A460146204600F002FE069B012BDE
:10510000064640F381804FF00008336906EB8303C5
:10511000186900F0E5FCC0F12000059B184410F070
:105120001F0000F09280C0F12003042B40F38A801E
:10513000C0F11C00049B03440493059B03440544F5
:105140000593049B002B07DD18EE101A1A46204623
:1051500000F030FE08EE100A059B002B05DD3146FD
:105160001A46204600F026FE06460B9B002B6ED00A
:1051700018EE100A314600F08DFE002867DA009B19
:10518000013B18EE101A00930A220023204600F07B
:1051900061FC089B08EE100A002B00F0B18100238F
:1051A00039460A22204600F055FC029B002B074698
:1051B00000F38E80069B022B51DC89E0109BC3F12B
:1051C00036034BE7039B5E1E079BB342BFBF079BA3
:1051D0000796F21A0A9BB6BF9B189E1B0A93039B65
:1051E000B8BF0026002BB7BFDDE90323DDE9033597
:1051F0009D1A002334E7079E049D089F3BE7079A0A
:1052000067E7069B012B18DCBAF1000F15D1CBF331
:10521000130393B92BF000431B0D1B0583B1049BB3
:1052200001330493059B013305934FF001080A9B5A
:10523000002B7FF46AAF01206FE74FF00008F6E71C
:105240009846F4E73FF47DAF18461C3072E7039BA5
:10525000002B37DC069B022B34DD039B0293029B61
:105260006BB931460522204600F0F4FB01460646A4
:1052700018EE100A00F00EFE00283FF7BBAD099BA8
:10528000019DDB4300934FF000083146204600F0BB
:10529000BFFB002F3FF4A4AEB8F1000F05D0B84516
:1052A00003D04146204600F0B3FB3946204600F0CB
:1052B000AFFB95E600263746E1E70097374699E5CC
:1052C00000002440089B002B00F0CA80039B02933F
:1052D000002D05DD39462A46204600F06BFD0746C5
:1052E000B8F1000F5BD07968204600F051FB05460D
:1052F00028B9874B024640F2EA21FFF73BBB3A69E7
:105300000232920007F10C010C3000F033FB012255
:105310002946204600F04EFD019B03F10109DDE91D
:105320000123134405930AF00103B846049307468A
:10533000314618EE100AFFF777FA4146029000F165
:10534000300A18EE100A00F0A5FD3A4603903146E7
:10535000204600F0BBFDC26809F1FF3B054602BBD9
:10536000014618EE100A00F095FD02462946204637
:10537000079200F04DFBDDE9063243EA0201049B8F
:105380000B434D460FD1BAF1390F2AD0039B002BA6
:1053900002DD029B03F1310A8BF800A075E7384665
:1053A000BAE70122E2E7039B002B04DB06990B43DB
:1053B00004990B4322D1002AEEDD18EE101A0122C7
:1053C000204600F0F7FC314608EE100A00F062FDBE
:1053D000002803DCE0D11AF0010FDDD0BAF1390F5B
:1053E000D7D139238BF800302B461D46013B15F8E9
:1053F000012C392A71D001321A7046E7002A07DDE4
:10540000BAF1390FEDD00AF101038BF800303CE717
:10541000059B09F801AC994547D018EE101A0023F6
:105420000A22204600F016FBB84508EE100A4FF09D
:1054300000034FF00A024146204606D100F00AFB65
:105440008046074609F1010972E700F003FB39467F
:10545000804600230A22204600F0FCFA0746F1E7C6
:10546000039B0293019D18EE100A3146FFF7DCF909
:1054700000F1300A019B05F801ABEA1A029B934246
:1054800009DD18EE101A00230A22204600F0E2FA85
:1054900008EE100AE7E7029B002BC8BF1D46019BE0
:1054A000D8BF01251D444FF0000818EE101A012244
:1054B000204600F07FFC314608EE100A00F0EAFCBE
:1054C000002891DC02D11AF0010F8DD12B461D4628
:1054D00013F8012D302AFAD0D7E6019A9A4284D1E6
:1054E000009B0133009331231370CEE6094BFFF785
:1054F00095BA219B002B7FF46EAA074BFFF78EBA5B
:10550000029B002BAEDC069B022B3FF7A8AEA9E75F
:10551000F768000854680008786800088A892DE94F
:10552000F041054610070C4658D44B68002B05DCAB
:105530000B6C002B02DC0020BDE8F081E66A002E37
:10554000F9D0002312F480522F682B6032D0606DA6
:10555000A3895A0705D56368C01A636B0BB1236C26
:10556000C01A00230246E66A216A2846B047431C57
:10557000A38906D129681D292CD82A4ACA40D607F2
:1055800028D500226260D9042269226004D5421C19
:1055900001D12B6803B96065616B2F600029CAD007
:1055A00004F14403994202D0284600F08BFD00200C
:1055B0006063C1E7216A01232846B047411CC7D177
:1055C0002B68002BC4D01D2B01D0162B01D12F60CE
:1055D000B1E7A38943F04003A381ADE70F69002F32
:1055E000A9D093070E6808BF4B690F6018BF00234E
:1055F000A6EB07088B60B8F1000F9CDD216AA66A54
:1056000043463A462846B047002806DCA38943F0C3
:105610004003A3814FF0FF308EE70744A8EB00085A
:10562000E9E700BF0100402038B50B6905460C468C
:1056300013B90025284638BD18B183690BB900F0AD
:1056400087F8144B9C421BD16C68B4F90C30002BCA
:10565000EFD0626ED00704D4990502D4A06D00F09B
:105660001AF928462146FFF759FF636EDA07054607
:10567000E0D4A3899B05DDD4A06D00F00DF9D9E736
:10568000054B9C4201D1AC68DFE7044B9C4208BF4C
:10569000EC68DAE72869000848690008086900082A
:1056A000002310B50446C0E90033C0E90433836029
:1056B00081814366C2818361194608225C30FEF70E
:1056C000F3FA054B6362054BA362054BE362054B9E
:1056D0002462236310BD00BF596500087B65000884
:1056E000B3650008D7650008014900F0AFB800BFF6
:1056F0002956000870B568224D1E55430E4605F127
:10570000740100F04BFD044640B10021C0E90016D1
:105710000C30A06005F16802FEF7C6FA204670BDA5
:10572000014800F0B8B800BFBD020020014800F0F9
:10573000B3B800BFBD020020014800F0ACB800BF04
:10574000BE020020014800F0A7B800BFBE02002042
:1057500010B50446FFF7F0FFA3691BB1BDE8104088
:10576000FFF7F0BFC4E912332365134B134A1B68DC
:10577000A262A34204BF0123A361204600F020F8E7
:105780006060204600F01CF8A060204600F018F889
:105790000022E06004216068FFF782FFA068012218
:1057A0000921FFF77DFFE06802221221FFF778FF51
:1057B0000123A361D2E700BF40680008E956000852
:1057C000F8B50746FFF7ACFF1E4B1E68B36913B967
:1057D0003046FFF7BDFF4836D6E90134013B03D51B
:1057E00033680BB33668F7E7B4F90C50D5B9164BEC
:1057F000E36004F15800656600F04CF8FFF796FF8F
:10580000C4E90155C4E904552560A561082229466B
:1058100004F15C00FEF748FAC4E90D55C4E91255DD
:105820002046F8BD6834D9E704213846FFF762FF07
:10583000044630600028D5D1FFF778FF0C233B6089
:10584000EEE700BF406800080100FFFF2DE9F843C4
:105850000646884600F148040027D4E90195B9F1CD
:10586000010905D52468002CF7D13846BDE8F88336
:10587000AB89012B07D9B5F90E30013303D0294686
:105880003046C04707436835E9E7000000487047E5
:105890006001002070477047704770B50E46B1F93F
:1058A0000E10002996B014461D4608DAB6F90C30E1
:1058B00000222A601A0610D44FF480630EE06A4674
:1058C00000F0E0FE0028F1DB019A02F47042A2F53C
:1058D00000535A425A412A60EEE7402300202360D9
:1058E00016B070BD8B8973B59D0706460C4607D56B
:1058F00004F14703236023610123636102B070BD9B
:1059000001AB6A46FFF7C9FF00990546304600F033
:1059100045FC48B9B4F90C309A05EFD423F00303E1
:1059200043F00203A381E3E70D4BB362A389206038
:1059300043F08003A381009B6361019B20615BB105
:10594000B4F90E10304600F0AFFE28B1A38923F061
:10595000030343F00103A381A0890543A581CDE79B
:10596000E9560008024B0146186800F017BC00BF5A
:105970000C0000200A44914200F1FF3300D170472F
:1059800010B511F8014B03F8014F9142F9D110BD48
:1059900070B5466A04460D4676B91020FFF7E2FF5F
:1059A0000246606220B9184B1848662100F02AFEB2
:1059B000C0E901660660C660666AF36883B1636A1F
:1059C000DB6853F82500B8B9012101FA05F6721D0C
:1059D0009200204600F060FB60B1C0E901560EE085
:1059E00021220421204600F057FB636AF060DB6847
:1059F000002BE4D1002070BD026843F8252000236D
:105A0000C0E90333F7E700BF85680008686900084C
:105A100070B5466A05460C4676B91020FFF7A2FF1E
:105A20000246686220B9094B09488A2100F0EAFD64
:105A3000C0E901660660C6603CB16B6A6268DB68FB
:105A400053F82210216043F8224070BD8568000899
:105A5000686900082DE9F0410D6907460C461E46AD
:105A600001F1140C0020DCF8003099B202FB016156
:105A70001E0C0B0C02FB063389B2013001EB034113
:105A800085424CF8041B4FEA1346ECDC0EB3A368C6
:105A9000AB4219DC616838460131FFF779FF804677
:105AA00028B902460C4B0D48B52100F0ABFD226928
:105AB000023204F10C0192000C30FFF75BFF21462B
:105AC0003846FFF7A5FF444604EB850301355E61C8
:105AD00025612046BDE8F081F76800086869000884
