:020000040800F2
:10000000000001203D150008B5130008BB130008CF
:10001000C1130008C7130008CD130008000000003A
:10002000000000000000000000000000D3130008E2
:10003000E113000800000000EF130008FD130008A2
:100040008D1500088D1500088D1500088D15000808
:100050008D1500088D1500088D1500088D150008F8
:100060008D1500088D1500088D1500088D150008E8
:100070008D1500088D1500088D1500088D150008D8
:100080008D1500088D1500088D1500080000000072
:100090000000000000000000000000008D150008B6
:1000A0008D1500088D1500088D1500088D150008A8
:1000B0008D1500088D1500088D1500088D15000898
:1000C0008D1500088D1500088D1500088D15000888
:1000D0008D1500088D1500088D1500080000000022
:1000E0008D1500088D1500088D1500080000000012
:1000F0000000000000000000000000008D15000856
:10010000000000008D1500088D1500088D150008F1
:1001100000000000000000000000000000000000DF
:100120008D1500088D1500088D1500088D15000827
:100130008D15000800000000000000000000000015
:100140000000000000000000000000008D15000805
:100150008D1500088D1500088D1500088D150008F7
:100160008D1500088D15000800000000000000003B
:10017000000000000000000000000000000000007F
:10018000000000008D1500080000000000000000C5
:040190008D150008C1
:1001940010B5054C237833B9044B13B10448AFF3BD
:1001A40000800123237010BD7000002000000000B7
:1001B400443C000808B5034B1BB103490348AFF3A3
:1001C400008008BD0000000074000020443C0008CA
:1001D4007BB972B90029BEBF00204FF0004106E090
:1001E40008BF00281CBF6FF000414FF0FF3000F043
:1001F400BFB9ADF1080C6DE904CE002909DB002B71
:100204001ADB00F04DF8DDF804E0DDE9022304B068
:100214007047404261EB4101002B1BDB00F040F8CA
:10022400DDF804E0DDE9022304B0404261EB410162
:10023400524263EB43037047524263EB430300F0C3
:100244002FF8DDF804E0DDE9022304B0404261EB5D
:1002540041017047524263EB430300F021F8DDF89B
:1002640004E0DDE9022304B0524263EB4303704728
:1002740053B94AB9002908BF00281CBF4FF0FF3109
:100284004FF0FF3000F074B9ADF1080C6DE904CE05
:1002940000F006F8DDF804E0DDE9022304B070475D
:1002A4002DE9F047089D04468E46002B4DD18A4225
:1002B400944669D9B2FA82F252B101FA02F3C2F158
:1002C400200120FA01F10CFA02FC41EA030E9440E9
:1002D4004FEA1C48210CBEFBF8F61FFA8CF708FB0A
:1002E40016E341EA034306FB07F199420AD91CEBE2
:1002F400030306F1FF3080F01F81994240F21C8114
:10030400023E63445B1AA4B2B3FBF8F008FB10335B
:1003140044EA034400FB07F7A7420AD91CEB040490
:1003240000F1FF3380F00A81A74240F20781644460
:10033400023840EA0640E41B00261DB1D4400023E5
:10034400C5E900433146BDE8F0878B4209D9002D49
:1003540000F0EF800026C5E9000130463146BDE8D3
:10036400F087B3FA83F6002E4AD18B4202D382423D
:1003740000F2F980841A61EB030301209E46002DEC
:10038400E0D0C5E9004EDDE702B9FFDEB2FA82F241
:10039400002A40F09280A1EB0C014FEA1C471FFA9F
:1003A4008CFE0126200CB1FBF7F307FB131140EA86
:1003B40001410EFB03F0884208D91CEB010103F153
:1003C400FF3802D2884200F2CB804346091AA4B215
:1003D400B1FBF7F007FB101144EA01440EFB00FEE9
:1003E400A64508D91CEB040400F1FF3102D2A6454E
:1003F40000F2BB800846A4EB0E0440EA03409CE7ED
:10040400C6F12007B34022FA07FC4CEA030C20FA99
:1004140007F401FA06F31C43F9404FEA1C4900FAB9
:1004240006F3B1FBF9F8200C1FFA8CFE09FB181136
:1004340040EA014108FB0EF0884202FA06F20BD9A9
:100444001CEB010108F1FF3A80F08880884240F2F9
:100454008580A8F102086144091AA4B2B1FBF9F03D
:1004640009FB101144EA014100FB0EFE8E4508D938
:100474001CEB010100F1FF346CD28E456AD90238BD
:10048400614440EA0840A0FB0294A1EB0E01A142A2
:10049400C846A64656D353D05DB1B3EB080261EB10
:1004A4000E0101FA07F722FA06F3F1401F43C5E9EA
:1004B400007100263146BDE8F087C2F12003D84020
:1004C4000CFA02FC21FA03F3914001434FEA1C4762
:1004D4001FFA8CFEB3FBF7F007FB10360B0C43EA54
:1004E400064300FB0EF69E4204FA02F408D91CEB04
:1004F400030300F1FF382FD29E422DD90238634402
:100504009B1B89B2B3FBF7F607FB163341EA0341A1
:1005140006FB0EF38B4208D91CEB010106F1FF38F0
:1005240016D28B4214D9023E6144C91A46EA0046E7
:1005340038E72E46284605E70646E3E61846F8E679
:100544004B45A9D2B9EB020864EB0C0E0138A3E7C2
:100554004646EAE7204694E74046D1E7D0467BE7A3
:10056400023B614432E7304609E76444023842E71B
:10057400704700BF80B584B000AFF860B9607A609E
:100584007B689AB24FF0FF33B968044802F0B3FABB
:100594007B6818461037BD4680BD00BFE4000020CC
:1005A40080B582B002AF01224FF400510F4801F030
:1005B400EDFA002202210D4801F0E8FA41F28833F5
:1005C400009301230A4A0B490B4801F0DAFF012288
:1005D4000221064801F0DAFA00224FF400510348E0
:1005E40001F0D4FA00BFBD4680BD00BF0008024040
:1005F40044010020450100208C00002080B582B019
:1006040000AF0346FB71FB79002B07D10A4B1B7823
:1006140023F00403DAB2084B1A7006E0064B1B7889
:1006240043F00403DAB2044B1A70FFF7B9FF00BFBA
:100634000837BD4680BD00BF4501002080B584B0A9
:1006440002AF03460A46FB711346BB710020FFF755
:10065400D5FFFB7903F07F03DBB2FB71F91D42F296
:100664001073009301230A4A0A4801F08AFFB91D56
:1006740042F2107300930123054A064801F081FFFA
:100684000120FFF7BBFF00BF0837BD4680BD00BF98
:10069400440100208C00002080B586B002AF0346E0
:1006A400FB710020FFF7AAFF07F10F02F91D42F2C8
:1006B400107300930123054801F063FF0120FFF745
:1006C4009DFFFB7B18461037BD4680BD8C00002083
:1006D40080B584B002AF03463960FB710020FFF798
:1006E4008DFF3A46F91D42F2107300930223054828
:1006F40001F047FF0120FFF781FF00BF0837BD4627
:1007040080BD00BF8C00002080B584B002AF0346DA
:100714003960FB710020FFF771FF3A46F91D42F280
:10072400107300930223054801F02BFF0120FFF70B
:1007340065FF00BF0837BD4680BD00BF8C000020A8
:1007440080B584B002AF03463960FB710020FFF727
:1007540055FF3A46F91D42F21073009303230E48E5
:1007640001F00FFF3B681B681B0CDAB23B681B6887
:1007740003F47F431A433B681B681B0403F47F03A1
:100784001A433B6822F07F421A600120FFF736FFCC
:1007940000BF0837BD4680BD8C00002080B582B004
:1007A40000AF78607B6819468820FFF791FF01202D
:1007B40000F05EFF7B68023319468A20FFF7A4FF2E
:1007C400012000F055FF7B68043319468C20FFF7A5
:1007D4009BFF012000F04CFF7B68063319468E20F6
:1007E400FFF776FF012000F043FF7B6808331946CA
:1007F4009020FFF789FF012000F03AFF7B680A335D
:1008040019469220FFF780FF012000F031FF7B683A
:100814000C3319469420FFF777FF012000F028FFDE
:100824007B680E3319469620FFF76EFF012000F017
:100834001FFF7B68103319469820FFF765FF0120DE
:1008440000F016FF7B68123319469A20FFF75CFF0D
:10085400012000F00DFF7B68143319469C20FFF73C
:1008640053FF012000F004FF7B68163319469E20D5
:10087400FFF74AFF012000F0FBFE00BF0837BD462A
:1008840080BD80B584B000AF0346FB71F420FFF750
:1008940003FF034623F00303FB730A2000F0E8FE82
:1008A40097F9073003F003035AB297F90F30134353
:1008B4005BB2FB73FB7B1946F420FFF7BFFE00BF5E
:1008C4001037BD4680BD000080B584B000AF4FF046
:1008D4000003FB603B461946FA20FFF731FF24482A
:1008E40002F01EFD3B681B093B603B68DB08214AA4
:1008F400128852009B1A1F4AB2F9022002FB03F32A
:10090400DB0ABB603B681B091A4A12889B1A3A68C7
:10091400120918490988521A02FB03F31B0B154AE2
:10092400B2F9042002FB03F39B0B7B60BA687B687B
:100934001344114A1360104B1A6813469B00134466
:1009440080331B1207EE903AF8EEE77AC7ED037A8C
:1009540097ED037ADFED096AC7EE267AC7ED037ACD
:10096400FB6807EE903AB0EE670A1037BD4680BDCB
:100974005C3C00082C010020280100200000C84233
:100984002DE9B04FD0B000AF4FF00003C7F83C31B1
:100994004FF00003C7F83831FFF796FF87ED4E0A92
:1009A40007F58C731946F720FFF7CAFED7F81831FC
:1009B4001B09C7F81831AC4B1B68DA1798469146E7
:1009C400B8F5FA33BB6449F1FF33FB64D7E912236A
:1009D400C7E94C23D7F83421D7F8303103FB02F1AF
:1009E400D7F83421D7F8303102FB03F3CA18D7F80B
:1009F4003031A3FB034553191D469C4BB3F910300A
:100A04001BB2DA17C7F8C830C7F8CC20D7E93201CF
:100A1400034603FB05F20B4604FB03F313440246AF
:100A2400A4FB02AB5B449B46C7E94AABC7E94AABAC
:100A34008E4BB3F90E301BB2DA17C7F8C030C7F8C3
:100A4400C420D7F83031D7E930452A4602FB03F2F7
:100A5400D7F83431214601FB03F31A44D7F8303177
:100A64002146A3FB0113C7F814310B46C7F8103114
:100A7400D7F81431D318C7F814314FF000004FF0F1
:100A84000001D7E944452B465904234641EAD331B2
:100A940023465804D7E94A2314183C644B417B6429
:100AA400D7E91034C7E94A34704BB3F90C301BB2A0
:100AB400DA17C7F8B830C7F8BC204FF000004FF081
:100AC4000001D7F8B830D9000020D7E94A23141818
:100AD400BC634B41FB63D7E90E34C7E94A34D7F80A
:100AE4003421D7F8303103FB02F1D7F83421D7F899
:100AF400303102FB03F3CA18D7F83031A3FB0313D8
:100B0400C7F80C310B46C7F80831D7F80C31D318A5
:100B1400C7F80C31554BB3F90A301BB2DA17C7F8D2
:100B2400B030C7F8B420D7E942452B46D7E92C8921
:100B3400424602FB03F24B46214601FB03F31344F6
:100B440022464146A2FB0112C7F804210A46C7F80F
:100B54000021D7F804211344C7F804314FF00000F2
:100B64004FF00001D7E940452346180A2B4640EAD6
:100B740003602B4619123D4BB3F908301BB2DA1748
:100B8400C7F8A830C7F8AC20D7F83031D7E92A899C
:100B94004A4602FB03F2D7F83431444604FB03F31C
:100BA4001A44D7F830314446A3FB0443C7F8FC3059
:100BB4002346C7F8F830D7F8FC30D318C7F8FC3010
:100BC4004FF000024FF00003D7E93E894C4623035F
:100BD400444643EA14534446220384183C6341EBDD
:100BE40003037B63D7E90C34C7E94C34D7E94C23BE
:100BF40003F50041C7F8A410C7F8A0201B4BDB88FD
:100C04009BB20022C7F89830C7F89C20D7E9284542
:100C14002B46D7E92689424602FB03F24B4621467E
:100C240001FB03F3134422464146A2FB0112C7F819
:100C3400F4200A46C7F8F020D7F8F4201344C7F884
:100C4400F4304FF000024FF00003D7E93C45294649
:100C54004A102946CB17C7E94C23D7E94C23134341
:100C640006D14FF0000394E1280100202C0100205C
:100C7400D7F81831C3F580130022BB62FA62D7E9B2
:100C84000A34C7E94834D7F820315B08C7F89430F0
:100C9400D7F82031DB07C7F89030D7E94A23D7E9E2
:100CA40024452146891AC7F88810294661EB0303B5
:100CB400C7F88C30D7E9224522462B469118396271
:100CC4005B417B62D7E9082321465118B961294663
:100CD4004B41FB614FF000024FF00003D7E9068956
:100CE40049468B01414643EA916341468A014146A4
:100CF40089183961494643EB010179614FF00002DB
:100D04004FF00003D7E9048949468B00414643EA82
:100D1400917341468A0010461946034622469B18A1
:100D2400BB600B462A4642EB0303FB604FF0000214
:100D34004FF00003D7E9028949468B00414643EA54
:100D4400917341468A0010461946034622469B1871
:100D5400C7F880302B460A4642EB0303C7F88430B9
:100D6400D7E94C23D7E92001FFF732FA02460B46B4
:100D7400C7E948238B4BB3F916301BB2DA17BB67AC
:100D8400FA67D7E948234FF000004FF00001500BF9
:100D940040EAC3405913D7E91E452B4600FB03F232
:100DA400234603FB01F313442246A2FB0012C7F8B7
:100DB400EC200A46C7F8E820D7F8EC201344C7F81B
:100DC400EC30D7E948234FF000004FF00001500BFE
:100DD40040EAC3405913D7E93A452B4600FB03F2D6
:100DE400234603FB01F313442246A2FB0012C7F877
:100DF400E4200A46C7F8E020D7F8E4201344C7F8F3
:100E0400E4304FF000024FF00003D7E938452146A3
:100E14004A0E294642EAC11229464B16C7E94C2319
:100E2400604BB3F914301BB2DA173B677A67D7F813
:100E34002031D7E91C452A4602FB03F2D7F82431B6
:100E4400214601FB03F31A44D7F820312146A3FBC2
:100E54000113C7F8DC300B46C7F8D830D7F8DC30BC
:100E6400D318C7F8DC304FF000024FF00003D7E985
:100E740036452146CA0C294642EA41322946CB145A
:100E8400C7E94A23D7E94801D7E94C238418BC664B
:100E940041EB0303FB66D7E94A23D7E91A45214608
:100EA40089183966294643EB010179664FF0000041
:100EB4004FF00001D7E918452346180A2B4640EAAB
:100EC40003602B461912374BB3F912301BB2DA17F1
:100ED400BB65FA654FF000024FF00003D7E91689AD
:100EE4004C462301444643EA1473444622018418C1
:100EF4003C6041EB03037B60D7E90034C7E9483425
:100F0400D7E948014FF000024FF00003020A42EA19
:100F140001620B124FF47A7303FB02F4D7E94823FE
:100F240002F0FF033B6500237B651F4BD7E914895F
:100F34004A4603FB02F20023414601FB03F3134438
:100F4400194A4146A1FB0212C7F8D4200A46C7F841
:100F5400D020D7F8D4201344C7F8D430134A4FF024
:100F64000003D7E93401FFF733F902460B46134671
:100F74002344C7F81C31D7F81C3107EE903AB8EE79
:100F8400677ADFED0B6AC7EE267AC7ED4F7AD7F89A
:100F94003C3107EE903AB0EE670A07F5A077BD46FC
:100FA400BDE8B08F2C010020E1F50500A08601000A
:100FB4000000C84280B500AFB621E020FFF73EFB39
:100FC4000A2000F055FB0448FFF7E8FB0320FFF775
:100FD40058FC00BF80BD00BF2C01002080B582B04A
:100FE40000AF00F0D3FA00F011F800F0D1F800F0EF
:100FF4006FF800F0A3F8FFF7DDFFFFF7C1FC87ED02
:10100400010A4FF47A7000F033FBF6E780B594B030
:1010140000AF07F1200330220021184602F00AF93C
:1010240007F10C0300221A605A609A60DA601A61B0
:101034000023BB60244B1B6C234A43F0805313648E
:10104400214B1B6C03F08053BB60BB6800237B60A7
:101054001E4B1B6823F440431C4A43F400431360B3
:101064001A4B1B6803F440437B607B6802233B629A
:101074000123FB6210233B630023BB6307F12003BE
:10108400184600F09DFD0346002B01D000F0D2F875
:101094000F23FB6000233B6100237B614FF48053EB
:1010A400BB614FF48053FB6107F10C030021184628
:1010B40000F0FEFF0346002B01D000F0BBF800BF98
:1010C4005037BD4680BD00BF00380240007000406C
:1010D40080B500AF174B184A1A60164B4FF4827252
:1010E4005A60144B00229A60124B0022DA60114BB2
:1010F40000221A610F4B00225A610E4B4FF400720A
:101104009A610C4B0022DA610A4B00221A62094BE5
:1011140000225A62074B00229A62064B0A22DA62C4
:10112400044801F0A5F90346002B01D000F082F831
:1011340000BF80BD8C0000200038004080B500AFA7
:10114400114B124A1A60104B4FF4E1325A600E4BA5
:1011540000229A600C4B0022DA600B4B00221A61C9
:10116400094B0C225A61084B00229A61064B00225B
:10117400DA61054801F072FC0346002B01D000F04F
:1011840059F800BF80BD00BFE400002000100140FA
:1011940080B588B000AF07F10C0300221A605A60D2
:1011A4009A60DA601A610023BB60204B1B6B1F4AF4
:1011B40043F0040313631D4B1B6B03F00403BB6078
:1011C400BB6800237B60194B1B6B184A43F0020376
:1011D4001363164B1B6B03F002037B607B680023D5
:1011E4003B60124B1B6B114A43F0010313630F4B1B
:1011F4001B6B03F001033B603B68002242F20201D7
:101204000B4800F0C3FC42F20203FB6001233B6184
:1012140000237B610023BB6107F10C0319460448DA
:1012240000F030FB00BF2037BD4680BD00380240CF
:101234000008024080B400AF72B600BFFEE70000B1
:1012440080B483B000AF00237B60104B5B6C0F4A0B
:1012540043F4804353640D4B5B6C03F480437B6025
:101264007B6800233B60094B1B6C084A43F08053A6
:101274001364064B1B6C03F080533B603B6800BF58
:101284000C37BD465DF8047B704700BF0038024050
:1012940080B58AB000AF786007F1140300221A60A9
:1012A4005A609A60DA601A617B681B68194A934233
:1012B4002CD100233B61184B1B6C174A43F4804329
:1012C4001364154B1B6C03F480433B613B6900239F
:1012D400FB60114B1B6B104A43F0020313630E4B6C
:1012E4001B6B03F00203FB60FB684FF460437B61FC
:1012F4000223BB610023FB6103233B6205237B6262
:1013040007F114031946054800F0BCFA00BF28375A
:10131400BD4680BD00380040003802400004024051
:1013240080B58AB000AF786007F1140300221A6018
:101334005A609A60DA601A617B681B68194A9342A2
:101344002CD100233B61184B5B6C174A43F010030C
:101354005364154B5B6C03F010033B613B69002342
:10136400FB60114B1B6B104A43F0010313630E4BDC
:101374001B6B03F00103FB60FB684FF4C0637B61EC
:101384000223BB610023FB6103233B6207237B62CF
:1013940007F114031946054800F074FA00BF283712
:1013A400BD4680BD001001400038024000000240EC
:1013B40080B400AFFEE780B400AFFEE780B400AFB6
:1013C400FEE780B400AFFEE780B400AFFEE780B470
:1013D40000AF00BFBD465DF8047B704780B400AF2A
:1013E40000BFBD465DF8047B704780B400AF00BF0A
:1013F400BD465DF8047B704780B500AF00F018F976
:1014040000BF80BD80B586B000AFF860B9607A6077
:1014140000237B610AE0AFF300800146BB685A1CDD
:10142400BA60CAB21A707B6901337B617A697B68DE
:101434009A42F0DB7B6818461837BD4680BD80B4FD
:1014440083B000AF78604FF0FF3318460C37BD46C9
:101454005DF8047B704780B483B000AF7860396076
:101464003B684FF400525A60002318460C37BD46BF
:101474005DF8047B704780B483B000AF78600123CB
:1014840018460C37BD465DF8047B704780B485B0C0
:1014940000AFF860B9607A60002318461437BD467F
:1014A4005DF8047B7047000080B586B000AF7860BB
:1014B400144A154BD31A7B617B693B61134B1B6840
:1014C400002B02D1114B124A1A60104B1A687B6828
:1014D40013443A699A4207D201F082FE03460C2271
:1014E4001A604FF0FF3309E0084B1B68FB60074BA1
:1014F4001A687B681344054A1360FB68184618375A
:10150400BD4680BD00000120000400004801002009
:101514006001002080B400AF064BD3F88830054A40
:1015240043F47003C2F8883000BFBD465DF8047B05
:10153400704700BF00ED00E0DFF834D00D480E49DD
:101544000E4A002302E0D458C4500433C4188C4219
:10155400F9D30B4A0B4C002301E013600432A2427E
:10156400FBD3FFF7D7FF01F041FEFFF737FD7047CC
:10157400000001200000002070000020F03C000862
:101584007000002060010020FEE7000080B500AF7D
:101594000E4B1B680D4A43F4007313600B4B1B681E
:1015A4000A4A43F480631360084B1B68074A43F4F8
:1015B40080731360032000F031F90F2000F008F865
:1015C400FFF73EFE0023184680BD00BF003C0240EA
:1015D40080B582B000AF7860124B1A68124B1B784A
:1015E40019464FF47A73B3FBF1F3B2FBF3F31846E5
:1015F40000F03BF90346002B01D001230EE07B6889
:101604000F2B0AD8002279684FF0FF3000F011F94F
:10161400064A7B681360002300E00123184608375C
:10162400BD4680BD0000002008000020040000200A
:1016340080B400AF064B1B781A46064B1B68134454
:10164400044A136000BFBD465DF8047B704700BFC9
:10165400080000204C01002080B400AF034B1B683D
:101664001846BD465DF8047B704700BF4C0100205E
:1016740080B584B000AF7860FFF7EEFFB8607B6898
:10168400FB60FB68B3F1FF3F05D00A4B1B781A4699
:10169400FB681344FB6000BFFFF7DEFF0246BB6834
:1016A400D31AFA689A42F7D800BF00BF1037BD4674
:1016B40080BD00BF0800002080B485B000AF786012
:1016C4007B6803F00703FB600C4BDB68BB60BA6804
:1016D4004FF6FF031340BB60FB681A02BB68134359
:1016E40043F0BF6343F40033BB60044ABB68D36078
:1016F40000BF1437BD465DF8047B704700ED00E081
:1017040080B400AF044BDB681B0A03F007031846E0
:10171400BD465DF8047B704700ED00E080B483B003
:1017240000AF03463960FB7197F90730002B0ADBE1
:101734003B68DAB20C4997F907301201D2B20B4474
:1017440083F800230AE03B68DAB20849FB7903F026
:101754000F03043B1201D2B20B441A7600BF0C37BC
:10176400BD465DF8047B704700E100E000ED00E059
:1017740080B489B000AFF860B9607A60FB6803F0A8
:101784000703FB61FB69C3F10703042B28BF042390
:10179400BB61FB690433062B02D9FB69033B00E000
:1017A40000237B614FF0FF32BB6902FA03F3DA4393
:1017B400BB681A407B699A404FF0FF317B6901FA9C
:1017C40003F3D9437B680B40134318462437BD46C3
:1017D4005DF8047B7047000080B582B000AF78608C
:1017E4007B68013BB3F1807F01D301230FE00A4AF8
:1017F4007B68013B53600F214FF0FF30FFF78EFFF2
:10180400054B00229A60044B07221A6000231846F5
:101814000837BD4680BD00BF10E000E080B582B04F
:1018240000AF78607868FFF747FF00BF0837BD4610
:1018340080BD80B586B000AF0346B9607A60FB73A3
:1018440000237B61FFF75CFF78617A68B968786987
:10185400FFF78EFF024697F90F3011461846FFF73F
:101864005DFF00BF1837BD4680BD80B582B000AFB4
:1018740078607868FFF7B0FF034618460837BD461E
:1018840080BD000080B489B000AF78603960002367
:101894007B6100233B610023BB610023FB6159E1B1
:1018A4000122FB6902FA03F37B613B681B687A69D6
:1018B40013403B613A697B699A4240F048813B6836
:1018C4005B6803F00303012B05D03B685B6803F0FE
:1018D4000303022B30D17B689B68BB61FB695B000F
:1018E400032202FA03F3DB43BA691340BB613B688A
:1018F400DA68FB695B0002FA03F3BA691343BB615C
:101904007B68BA699A607B685B68BB610122FB698A
:1019140002FA03F3DB43BA691340BB613B685B68BB
:101924001B0903F00102FB6902FA03F3BA691343CA
:10193400BB617B68BA695A603B685B6803F0030368
:10194400032B17D07B68DB68BB61FB695B00032258
:1019540002FA03F3DB43BA691340BB613B689A683C
:10196400FB695B0002FA03F3BA691343BB617B684A
:10197400BA69DA603B685B6803F00303022B23D186
:10198400FB69DA087B68083253F82230BB61FB69D3
:1019940003F007039B000F2202FA03F3DB43BA6947
:1019A4001340BB613B681A69FB6903F007039B00A2
:1019B40002FA03F3BA691343BB61FB69DA087B6873
:1019C4000832B96943F822107B681B68BB61FB6964
:1019D4005B00032202FA03F3DB43BA691340BB61E1
:1019E4003B685B6803F00302FB695B0002FA03F3E4
:1019F400BA691343BB617B68BA691A603B685B6868
:101A040003F44033002B00F0A2800023FB60574B0B
:101A14005B6C564A43F480435364544B5B6C03F44D
:101A24008043FB60FB68524AFB699B08023352F80F
:101A34002330BB61FB6903F003039B000F2202FA0E
:101A440003F3DB43BA691340BB617B68494A9342A1
:101A540019D07B68484A934213D07B68474A934223
:101A64000DD07B68464A934207D07B68454A93422F
:101A740001D1042308E0072306E0032304E0022342
:101A840002E0012300E00023FA6902F0030292005D
:101A94009340BA691343BB613549FB699B08023320
:101AA400BA6941F82320384B9B68BB613B69DB432F
:101AB400BA691340BB613B685B6803F48013002B75
:101AC40003D0BA693B691343BB612F4ABB69936076
:101AD4002D4BDB68BB613B69DB43BA691340BB61D7
:101AE4003B685B6803F40013002B03D0BA693B69BD
:101AF4001343BB61244ABB69D360234B5B68BB615E
:101B04003B69DB43BA691340BB613B685B6803F420
:101B14000033002B03D0BA693B691343BB611A4AF3
:101B2400BB695360184B1B68BB613B69DB43BA69F3
:101B34001340BB613B685B6803F48033002B03D024
:101B4400BA693B691343BB610F4ABB691360FB6904
:101B54000133FB61FB690F2B7FF6A2AE00BF00BF10
:101B64002437BD465DF8047B704700BF003802404F
:101B74000038014000000240000402400008024016
:101B8400000C024000100240003C014080B483B0CD
:101B940000AF78600B467B8013467B707B78002B0C
:101BA40003D07A887B689A6103E07B881A047B6897
:101BB4009A6100BF0C37BD465DF8047B7047000096
:101BC40080B586B000AF78607B68002B01D101231B
:101BD40067E27B681B6803F00103002B75D0884B18
:101BE4009B6803F00C03042B0CD0854B9B6803F01B
:101BF4000C03082B12D1824B5B6803F48003B3F50A
:101C0400800F0BD17E4B1B6803F40033002B5BD099
:101C14007B685B68002B57D1012342E27B685B68D9
:101C2400B3F5803F06D1764B1B68754A43F4803385
:101C340013601DE07B685B68B3F5A02F0CD1704B7B
:101C44001B686F4A43F4802313606D4B1B686C4A16
:101C540043F4803313600BE0694B1B68684A23F438
:101C640080331360664B1B68654A23F4802313603A
:101C74007B685B68002B13D0FFF7EEFC386108E04B
:101C8400FFF7EAFC02463B69D31A642B01D903230C
:101C940007E25B4B1B6803F40033002BF0D014E025
:101CA400FFF7DAFC386108E0FFF7D6FC02463B692F
:101CB400D31A642B01D90323F3E1514B1B6803F4BA
:101CC4000033002BF0D100E000BF7B681B6803F0F9
:101CD4000203002B63D04A4B9B6803F00C03002BD8
:101CE4000BD0474B9B6803F00C03082B1CD1444BCF
:101CF4005B6803F48003002B16D1414B1B6803F08F
:101D04000203002B05D07B68DB68012B01D0012383
:101D1400C7E13B4B1B6823F0F8027B681B69DB00BF
:101D2400374913430B603AE07B68DB68002B20D013
:101D3400344B01221A60FFF78FFC386108E0FFF78B
:101D44008BFC02463B69D31A022B01D90323A8E179
:101D54002B4B1B6803F00203002BF0D0284B1B68AD
:101D640023F0F8027B681B69DB00254913430B60F1
:101D740015E0244B00221A60FFF76EFC386108E07E
:101D8400FFF76AFC02463B69D31A022B01D90323ED
:101D940087E11B4B1B6803F00203002BF0D17B6827
:101DA4001B6803F00803002B36D07B685B69002BAB
:101DB40016D0154B01221A60FFF74EFC386108E07B
:101DC400FFF74AFC02463B69D31A022B01D90323CD
:101DD40067E10B4B5B6F03F00203002BF0D01BE0B9
:101DE400094B00221A60FFF737FC38610EE0FFF759
:101DF40033FC02463B69D31A022B07D9032350E173
:101E04000038024000004742800E4742884B5B6F17
:101E140003F00203002BEAD17B681B6803F0040380
:101E2400002B00F097800023FB75814B1B6C03F0A3
:101E34008053002B0FD10023BB607D4B1B6C7C4A6D
:101E440043F0805313647A4B1B6C03F08053BB60E4
:101E5400BB680123FB75774B1B6803F48073002B6D
:101E640018D1744B1B68734A43F480731360FFF7F3
:101E7400F3FB386108E0FFF7EFFB02463B69D31A36
:101E8400022B01D903230CE16A4B1B6803F4807312
:101E9400002BF0D07B689B68012B06D1644B1B6F31
:101EA400634A43F0010313671CE07B689B68052BBE
:101EB4000CD15F4B1B6F5E4A43F0040313675C4B0A
:101EC4001B6F5B4A43F0010313670BE0584B1B6F16
:101ED400574A23F001031367554B1B6F544A23F0F1
:101EE400040313677B689B68002B15D0FFF7B4FBD2
:101EF40038610AE0FFF7B0FB02463B69D31A41F2AE
:101F04008832934201D90323CBE0494B1B6F03F082
:101F14000203002BEED014E0FFF79EFB38610AE0C9
:101F2400FFF79AFB02463B69D31A41F28832934287
:101F340001D90323B5E03E4B1B6F03F00203002BD2
:101F4400EED1FB7D012B05D1394B1B6C384A23F0B4
:101F5400805313647B689B69002B00F0A180344B91
:101F64009B6803F00C03082B5CD07B689B69022BF5
:101F740041D1314B00221A60FFF76EFB386108E053
:101F8400FFF76AFB02463B69D31A022B01D90323EC
:101F940087E0274B1B6803F00073002BF0D17B68AC
:101FA400DA697B681B6A1A437B685B6A9B011A4384
:101FB4007B689B6A5B08013B1B041A437B68DB6AF2
:101FC4001B061B4913434B601B4B01221A60FFF78E
:101FD40043FB386108E0FFF73FFB02463B69D31A35
:101FE400022B01D903235CE0114B1B6803F000733F
:101FF400002BF0D054E0104B00221A60FFF72CFBAA
:10200400386108E0FFF728FB02463B69D31A022B2C
:1020140001D9032345E0064B1B6803F00073002B32
:10202400F0D13DE07B689B69012B07D1012338E0A7
:102034000038024000700040600047421B4B5B6860
:10204400FB607B689B69012B28D0FB6803F480024A
:102054007B68DB699A4221D1FB6803F03F027B680D
:102064001B6A9A421AD1FA6847F6C07313407A6819
:10207400526A9201934211D1FB6803F440327B68A7
:102084009B6A5B08013B1B049A4207D1FB6803F07F
:1020940070627B68DB6A1B069A4201D0012300E070
:1020A400002318461837BD4680BD00BF00380240E3
:1020B40080B584B000AF786039607B68002B01D1B3
:1020C4000123CCE0684B1B6803F007033A689A428B
:1020D4000CD9654B3A68D2B21A70634B1B6803F093
:1020E40007033A689A4201D00123B8E07B681B6871
:1020F40003F00203002B20D07B681B6803F0040369
:10210400002B05D0594B9B68584A43F4E053936025
:102114007B681B6803F00803002B05D0534B9B68B6
:10212400524A43F460439360504B9B6823F0F0029F
:102134007B689B684D4913438B607B681B6803F085
:102144000103002B44D07B685B68012B07D1474B0C
:102154001B6803F40033002B19D101237FE07B6853
:102164005B68022B03D07B685B68032B07D13F4B72
:102174001B6803F00073002B09D101236FE03B4B74
:102184001B6803F00203002B01D1012367E0374BE6
:102194009B6823F003027B685B68344913438B60BC
:1021A400FFF75AFAF8600AE0FFF756FA0246FB68AE
:1021B400D31A41F28832934201D903234FE02B4BC7
:1021C4009B6803F00C027B685B689B009A42EBD12E
:1021D400254B1B6803F007033A689A420CD2224B42
:1021E4003A68D2B21A70204B1B6803F007033A68AE
:1021F4009A4201D0012332E07B681B6803F0040398
:10220400002B08D0194B9B6823F4E0527B68DB68F1
:10221400164913438B607B681B6803F00803002B8B
:1022240009D0124B9B6823F460427B681B69DB0076
:102234000E4913438B6000F021F802460B4B9B6858
:102244001B0903F00F030A49CB5C22FA03F3094A82
:102254001360094B1B681846FFF7BAF900231846A8
:102264001037BD4680BD00BF003C0240003802402C
:10227400643C000800000020040000202DE9B04F59
:1022840090B000AF00237B630023FB6300233B6318
:102294000023BB63594B9B6803F00C03082B0DD040
:1022A400082B00F2A180002B02D0042B03D09BE06A
:1022B400534BBB639BE0534BBB6398E04F4B5B6852
:1022C40003F03F037B634D4B5B6803F48003002BF7
:1022D40028D04A4B5B689B0900223B627A623B6AC6
:1022E400C3F308000021474B03FB01F2002300FB6A
:1022F40003F31344434AA0FB0212FA620A46BA6289
:10230400FA6A1344FB627B6B0022BB61FA61D7E972
:102314000623D7E90A01FDF7ABFF02460B46134635
:10232400FB6353E0354B5B689B0900223B617A6198
:102334003B69C3F3080A4FF0000B52465B464FF06B
:1023440000004FF00001590141EAD26150010246F8
:102354000B46B2EB0A0863EB0B094FF000024FF097
:1023640000034FEA891343EA98634FEA8812B2EBF9
:10237400080463EB09054FF000024FF00003EB0083
:1023840043EA5473E20014461D4614EB0A033B600F
:1023940045EB0B037B604FF000024FF00003D7E9DD
:1023A400004529468B02214643EA915321468A027D
:1023B400104619467B6B0022BB60FA60D7E9022302
:1023C400FDF756FF02460B461346FB630B4B5B6857
:1023D4001B0C03F0030301335B003B63FA6B3B6BA1
:1023E400B2FBF3F3BB6302E0054BBB6300BFBB6B03
:1023F40018464037BD46BDE8B08F00BF00380240E4
:102404000024F40040787D0180B400AF034B1B68C6
:102414001846BD465DF8047B704700BF00000020ED
:1024240080B500AFFFF7F0FF0246054B9B689B0A9F
:1024340003F007030349CB5C22FA03F3184680BD7B
:1024440000380240743C000880B500AFFFF7DCFFA1
:102454000246054B9B685B0B03F007030349CB5C07
:1024640022FA03F3184680BD00380240743C000889
:1024740080B582B000AF78607B68002B01D1012366
:102484007BE07B685B6A002B08D17B685B68B3F5F3
:10249400827F09D07B680022DA6105E07B68002234
:1024A4001A617B6800225A617B6800229A627B6809
:1024B40093F85130DBB2002B06D17B68002283F8FD
:1024C40050207868FEF7E4FE7B68022283F85120EE
:1024D4007B681B681A687B681B6822F040021A60DC
:1024E4007B685B6803F482727B689B6803F4044333
:1024F4001A437B68DB6803F400631A437B681B6937
:1025040003F002031A437B685B6903F001031A4377
:102514007B689B6903F400731A437B68DB6903F0EF
:1025240038031A437B681B6A03F0800342EA030101
:102534007B689B6A03F400527B681B680A431A6039
:102544007B689B691B0C03F004017B685B6A03F0E6
:1025540010027B681B680A435A607B681B68DA694F
:102564007B681B6822F40062DA617B6800225A658A
:102574007B68012283F85120002318460837BD46A2
:1025840080BD80B58CB000AFF860B9607A607B80A4
:102594000123FB62002387F82B30FB6893F850304B
:1025A400012B01D102238AE1FB68012283F8502028
:1025B400FFF752F87862FB6893F8513087F82330BC
:1025C400FB685B68FB617B887B8397F82330012B76
:1025D4000FD0FB69B3F5827F07D1FB689B68002BA2
:1025E40003D197F82330042B03D0022387F82B3030
:1025F4005BE1BB68002B05D07B68002B02D07B8895
:10260400002B03D1012387F82B304EE1FB6893F8AC
:102614005130DBB2042B03D0FB68052283F8512030
:10262400FB6800225A65FB687A689A63FB687A88BB
:10263400DA87FB687A889A87FB68BA681A63FB684A
:102644007A88DA86FB687A889A86FB6800221A649C
:10265400FB6800225A64FB681B681B6803F0400394
:10266400402B07D0FB681B681A68FB681B6842F0A4
:1026740040021A60FB68DB68B3F5006F78D1FB6831
:102684005B68002B02D07B8B012B66D1FB681B6B34
:102694001A88FB681B68DA60FB681B6B9A1CFB6872
:1026A4001A63FB68DB8E9BB2013B9AB2FB68DA8645
:1026B40053E0FB681B689B6803F00203022B1BD1E9
:1026C400FB68DB8E9BB2002B16D0FB6A012B13D167
:1026D400FB681B6B1A88FB681B68DA60FB681B6B62
:1026E4009A1CFB681A63FB68DB8E9BB2013B9AB2AF
:1026F400FB68DA860023FB62FB681B689B6803F0B7
:102704000103012B19D1FB68DB8F9BB2002B14D082
:10271400FB681B68DA68FB689B6B92B21A80FB68E3
:102724009B6B9A1CFB689A63FB68DB8F9BB2013B33
:102734009AB2FB68DA870123FB62FEF78DFF02463B
:102744007B6AD31ABA6B9A4207D8BB6BB3F1FF3FCB
:1027540003D0032387F82B30A7E0FB68DB8E9BB202
:10276400002BA6D1FB68DB8F9BB2002BA1D17CE0B0
:10277400FB685B68002B02D07B8B012B6BD1FB6861
:102784001A6BFB681B680C3312781A70FB681B6B9E
:102794005A1CFB681A63FB68DB8E9BB2013B9AB23E
:1027A400FB68DA8657E0FB681B689B6803F002034A
:1027B400022B1CD1FB68DB8E9BB2002B17D0FB6A6B
:1027C400012B14D1FB681A6BFB681B680C3312785D
:1027D4001A70FB681B6B5A1CFB681A63FB68DB8E60
:1027E4009BB2013B9AB2FB68DA860023FB62FB686A
:1027F4001B689B6803F00103012B19D1FB68DB8F75
:102804009BB2002B14D0FB681B68DA68FB689B6BD7
:10281400D2B21A70FB689B6B5A1CFB689A63FB6804
:10282400DB8F9BB2013B9AB2FB68DA870123FB6220
:10283400FEF712FF02467B6AD31ABA6B9A4203D898
:10284400BB6BB3F1FF3F02D1BB6B002B03D103235E
:1028540087F82B3029E0FB68DB8E9BB2002BA2D1DA
:10286400FB68DB8F9BB2002B9DD17A6AB96BF86849
:1028740000F0B2F80346002B06D0012387F82B3072
:10288400FB6820225A6510E0FB689B68002B0BD183
:1028940000237B61FB681B68DB687B61FB681B684A
:1028A4009B687B617B6900E000BFFB68012283F8C1
:1028B4005120FB68002283F8502097F82B301846EB
:1028C4003037BD4680BD000080B588B000AFF860E9
:1028D400B9603B601346FB71FEF7BEFE0246BB6A5D
:1028E4009B1A3A681344FB61FEF7B6FEB861394B94
:1028F4001B685B011B0DFA6902FB03F37B6154E067
:102904003B68B3F1FF3F50D0FEF7A6FE0246BB6919
:10291400D31AFA699A4202D9FB69002B3DD1FB68AC
:102924001B685A68FB681B6822F0E0025A60FB6867
:102934005B68B3F5827F11D1FB689B68B3F5004FE8
:1029440004D0FB689B68B3F5806F07D1FB681B68F4
:102954001A68FB681B6822F040021A60FB689B6AD5
:10296400B3F5005F0FD1FB681B681A68FB681B682E
:1029740022F400521A60FB681B681A68FB681B6823
:1029840042F400521A60FB68012283F85120FB686C
:10299400002283F85020032317E07B69002B01D128
:1029A4000023FB617B69013B7B61FB681B689A68C0
:1029B400BB681340BA689A420CBF01230023DBB200
:1029C4001A46FB799A429BD1002318462037BD460C
:1029D40080BD00BF0000002080B588B002AFF86061
:1029E400B9607A601B4B1B681B4AA2FB03235B0D77
:1029F4004FF47A7202FB03F37B61FB685B68B3F507
:102A0400827F12D17B680093BB6800228021F86822
:102A1400FFF75AFF0346002B16D0FB685B6D43F0AB
:102A24002002FB685A6503230FE07B69002B0AD060
:102A34007B69013B7B61FB681B689B6803F0800337
:102A4400802BF2D000E000BF002318461837BD46A3
:102A540080BD00BF00000020819F5E1680B582B05B
:102A640000AF78607B68002B01D101233FE07B68D5
:102A740093F83D30DBB2002B06D17B68002283F84B
:102A84003C207868FEF74CFC7B68242283F83D20C8
:102A94007B681B68DA687B681B6822F40052DA6082
:102AA400786800F029F97B681B681A697B681B68E1
:102AB40022F490421A617B681B685A697B681B6820
:102AC40022F02A025A617B681B68DA687B681B68FB
:102AD40042F40052DA607B6800221A647B68202288
:102AE40083F83D207B68202283F83E20002318468B
:102AF4000837BD4680BD80B58AB002AFF860B960C2
:102B04003B601346FB8000237B61FB6893F83D30F8
:102B1400DBB2202B7CD1BB68002B02D0FB88002BBE
:102B240001D1012375E0FB6893F83C30012B01D1FE
:102B340002236EE0FB68012283F83C20FB6800223C
:102B44001A64FB68212283F83D20FEF785FD786135
:102B5400FB68FA889A84FB68FA88DA84FB689B68C5
:102B6400B3F5805F08D1FB681B69002B04D10023F7
:102B7400FB61BB68BB6103E0BB68FB610023BB6115
:102B8400FB68002283F83C202AE03B6800937B69C1
:102B940000228021F86800F040F80346002B01D0A1
:102BA400032336E0FB69002B0BD1BB691B881A4653
:102BB400FB681B68C2F308025A60BB690233BB613D
:102BC40007E0FB691A78FB681B685A60FB690133EC
:102BD400FB61FB68DB8C9BB2013B9AB2FB68DA8435
:102BE400FB68DB8C9BB2002BCFD13B6800937B69E5
:102BF40000224021F86800F010F80346002B01D0B1
:102C0400032306E0FB68202283F83D20002300E034
:102C1400022318462037BD4680BD80B590B000AF72
:102C2400F860B9603B601346FB7150E0BB6CB3F1D4
:102C3400FF3F4CD0BB6C002B07D0FEF70DFD0246C6
:102C44003B68D31ABA6C9A4241D2FB681B680C33B6
:102C5400BB62BB6A53E8003F7B627B6A23F4D07398
:102C6400FB63FB681B680C33FA6B7A633B63396B59
:102C74007A6B41E80023FB62FB6A002BE5D1FB6819
:102C84001B6814337B617B6953E8003F3B613B69FC
:102C940023F00103BB63FB681B681433BA6B3A620D
:102CA400FB61F9693A6A41E80023BB61BB69002B07
:102CB400E5D1FB68202283F83D20FB68202283F8BD
:102CC4003E20FB68002283F83C2003230FE0FB68CE
:102CD4001B681A68BB681340BA689A420CBF012388
:102CE4000023DBB21A46FB799A429FD00023184690
:102CF4004037BD4680BD00002DE9B04FC0B000AFE5
:102D0400C7F8F400D7F8F4301B681B6923F440506B
:102D1400D7F8F430D968D7F8F4301A6840EA0103D8
:102D24001361D7F8F4309A68D7F8F4301B691A4362
:102D3400D7F8F4305B691A43D7F8F430DB691343EE
:102D4400C7F8F830D7F8F4301B68DB6823F4164171
:102D540021F00C01D7F8F4301A68D7F8F8300B4397
:102D6400D360D7F8F4301B685B6923F44070D7F85C
:102D7400F4309969D7F8F4301A6840EA01035361D2
:102D8400D7F8F4301A688F4B9A4205D0D7F8F4304C
:102D94001A688D4B9A4204D1FFF756FBC7F8FC0022
:102DA40003E0FFF73DFBC7F8FC00D7F8F430DB691C
:102DB400B3F5004F40F00C81D7F8FC300022C7F87F
:102DC400E830C7F8EC20D7E93A4522462B4691185B
:102DD400B9655B41FB65D7E91623214612EB01086F
:102DE400294643EB01094FF000024FF000034FEA7C
:102DF400C90343EA58734FEAC802904699462346EA
:102E040018EB0303C7F8E0302B4649EB0303C7F87C
:102E1400E430D7F8F4305B680022C7F8D830C7F83C
:102E2400DC20D7E936120B46DB183B65134642EB30
:102E340003037B65D7E91423D7E93801FDF718FAB2
:102E440002460B46614BA3FB02235B091C01D7F826
:102E5400FC300022C7F8D030C7F8D420D7E9348931
:102E640042464B469118B9645B41FB64D7E912238F
:102E7400414612EB010A494643EB010B4FF00002B5
:102E84004FF000034FEACB0343EA5A734FEACA02F6
:102E940092469B4643461AEB0303C7F8C8304B4699
:102EA4004BEB0303C7F8CC30D7F8F4305B6800224F
:102EB400C7F8C030C7F8C420D7E930120B46DB1876
:102EC4003B64134642EB03037B64D7E91023D7E941
:102ED4003201FDF7CDF902460B4611463B4BA3FBED
:102EE40001235B09642202FB03F3CB1ADB0003F129
:102EF4003202364BA3FB02235B095B0003F4F87335
:102F04001C44D7F8FC300022C7F8B830C7F8BC20FE
:102F1400D7E92E8942464B469118B9635B41FB635E
:102F2400D7E90E2341465118396349464B417B6327
:102F34004FF000024FF00003D7E90CAB5946CB0029
:102F4400514643EA51735146CA0010461946034696
:102F540042469B18C7F8B0304B460A4642EB03037F
:102F6400C7F8B430D7F8F4305B680022C7F8A8304B
:102F7400C7F8AC20D7E92A120B46DB18BB6213460C
:102F840042EB0303FB62D7E90A23D7E92C01FDF7DF
:102F94006FF902460B460D4BA3FB02135B09642138
:102FA40001FB03F3D31ADB003233084AA2FB0323E9
:102FB4005B0903F00702D7F8F4301B6822449A60D7
:102FC40005E100BF00100140001401401F85EB51D2
:102FD400D7F8FC300022C7F8A030C7F8A420D7E9FE
:102FE400288942464B46911839625B417B62D7E996
:102FF400082341465418494643EB01054FF00002AB
:103004004FF00003EB0043EA5473E20014461D46FC
:103014004346E318C7F898304B4645EB0303C7F81B
:103024009C30D7F8F4305B680022C7F89030C7F8BA
:1030340094204FF000024FF00003D7E924452946BD
:103044008B00214643EA917321468A00D7E9260181
:10305400FDF70EF902460B46604BA3FB02235B0906
:103064001C01D7F8FC300022C7F88830C7F88C2040
:10307400D7E9228942464B469118B9615B41FB610D
:10308400D7E9062341465118396149464B417B61D2
:103094004FF000024FF00003D7E904AB5946CB00D0
:1030A400514643EA51735146CA0010461946034635
:1030B40042469B18C7F880304B460A4642EB03034E
:1030C400C7F88430D7F8F4305B680022BB67FA672E
:1030D4004FF000024FF00003D7E91E8949468B00E8
:1030E400414643EA917341468A00D7E92001FDF73E
:1030F400BFF802460B46394BA3FB02135B0964215C
:1031040001FB03F3D31A1B013233344AA2FB03231A
:103114005B0903F0F0031C44D7F8FC3000223B6742
:103124007A67D7E91C8942464B469118B9605B41DE
:10313400FB60D7E9022341465118396049464B41A7
:103144007B604FF000024FF00003D7E900AB594613
:10315400CB00514643EA51735146CA001046194602
:10316400034642469B18BB664B460A4642EB0303A2
:10317400FB66D7F8F4305B6800223B667A664FF052
:1031840000024FF00003D7E9188949468B004146F5
:1031940043EA917341468A00D7E91A01FDF768F8BA
:1031A40002460B460D4BA3FB02135B09642101FB92
:1031B40003F3D31A1B013233084AA2FB03235B092E
:1031C40003F00F02D7F8F4301B6822449A6000BF62
:1031D40007F58077BD46BDE8B08F00BF1F85EB5172
:1031E400014B1868704700BF0C00002070B50D4DEE
:1031F4000D4C641BA4100026A64209D10B4D0C4CA7
:1032040000F01EFD641BA4100026A64205D170BD6B
:1032140055F8043B98470136EEE755F8043B9847C8
:103224000136F2E7E83C0008E83C0008E83C000806
:10323400EC3C000802440346934200D1704703F873
:10324400011BF9E770B50E46054618B183690BB941
:1032540000F048FAAB69AC6813B9284600F042FAAA
:103264002C4B9C4220D16C68636EDB0705D4A38988
:10327400980502D4A06D00F0D3FAA38919071DD5CF
:103284002369DBB1013EA36816F8011F013BA3606B
:1032940039BB002B38DA22460A21284600F048F8C8
:1032A400013011D00A2511E01B4B9C4201D1AC68BE
:1032B400DAE71A4B9C4208BFEC68D5E7214628465A
:1032C40000F088F80028DDD04FF0FF35636EDA0790
:1032D40005D4A3899B0502D4A06D00F0A2FA284668
:1032E40070BD002B04DAA2699A4206DC0A2904D0D4
:1032F40023685A1C22601970C5E72246284600F04C
:1033040017F80130BFD1DFE723680A255A1C226071
:103314001D70DBE7A03C0008C03C0008803C0008AE
:10332400024B01461868FFF78DBF00BF0C00002058
:10333400F8B50E461446054618B183690BB900F07A
:10334400D1F9214B9C422BD16C68A369A360A3895A
:103354001A072FD523696BB323692068C01A6369E0
:10336400F6B28342374604DC2146284600F026F9AB
:1033740030BBA368013BA36023685A1C22601E7003
:1033840063690130834204D0A389DB0706D50A2E82
:1033940004D12146284600F011F988B93846F8BD11
:1033A4000A4B9C4201D1AC68CFE7094B9C4208BF51
:1033B400EC68CAE72146284600F00CF80028CBD078
:1033C4004FF0FF37EAE700BFA03C0008C03C00080C
:1033D400803C0008324B70B51D6806460C4625B18A
:1033E400AB6913B9284600F07DF92E4B9C420FD1EE
:1033F4006C68A389B4F90C2019072CD4DD0611D408
:103404000923336042F04003A3814FF0FF303EE0D4
:10341400254B9C4201D1AC68EBE7244B9C4208BF8E
:10342400EC68E6E7580712D5616B41B104F1440337
:10343400994202D0304600F05BFA00236363A3890B
:1034440023F02403A3810023636023692360A389F9
:1034540043F00803A38123694BB9A38903F42073C0
:10346400B3F5007F03D02146304600F001FAA0896D
:10347400B4F90C2010F001030AD00023A36063699F
:103484005B42A361236943B910F08000BAD170BDD7
:10349400810758BF6369A360F4E70020F7E700BF22
:1034A4000C000020A03C0008C03C0008803C000840
:1034B4008A892DE9F041054610070C4658D44B681B
:1034C400002B05DC0B6C002B02DC0020BDE8F08136
:1034D400E66A002EF9D0002312F480522F682B6084
:1034E40032D0606DA3895A0705D56368C01A636B2F
:1034F4000BB1236CC01A00230246E66A216A2846EF
:10350400B047431CA38906D129681D292CD82A4A0F
:10351400CA40D60728D500226260D90422692260F5
:1035240004D5421C01D12B6803B96065616B2F601F
:103534000029CAD004F14403994202D0284600F07D
:10354400D7F900206063C1E7216A01232846B04708
:10355400411CC7D12B68002BC4D01D2B01D0162BC6
:1035640001D12F60B1E7A38943F04003A381ADE704
:103574000F69002FA9D093070E6808BF4B690F602D
:1035840018BF0023A6EB07088B60B8F1000F9CDD81
:10359400216AA66A43463A462846B047002806DC14
:1035A400A38943F04003A3814FF0FF308EE7074423
:1035B400A8EB0008E9E700BF0100402038B50B691B
:1035C40005460C4613B90025284638BD18B1836951
:1035D4000BB900F087F8144B9C421BD16C68B4F90A
:1035E4000C30002BEFD0626ED00704D4990502D4BE
:1035F400A06D00F015F928462146FFF759FF636EC8
:10360400DA070546E0D4A3899B05DDD4A06D00F05C
:1036140008F9D9E7054B9C4201D1AC68DFE7044BBC
:103624009C4208BFEC68DAE7A03C0008C03C0008F4
:10363400803C0008002310B50446C0E90033C0E90B
:103644000433836081814366C28183611946082201
:103654005C30FFF7EFFD054B6362054BA362054B3E
:10366400E362054B2462236310BD00BFD53A000812
:10367400F73A00082F3B0008533B0008014900F0CB
:10368400AFB800BFC135000870B568224D1E554360
:103694000E4605F1740100F097F9044640B100218B
:1036A400C0E900160C30A06005F16802FFF7C2FD06
:1036B400204670BD014800F0B3B800BF510100209E
:1036C400014800F0AEB800BF51010020014800F0ED
:1036D400A7B800BF52010020014800F0A2B800BF03
:1036E4005201002010B50446FFF7F0FFA3691BB197
:1036F400BDE81040FFF7F0BFC4E912332365134B54
:10370400134A1B68A262A34204BF0123A36120469B
:1037140000F020F86060204600F01CF8A06020460D
:1037240000F018F80022E06004216068FFF782FFCF
:10373400A06801220921FFF77DFFE068022212211F
:10374400FFF778FF0123A361D2E700BF7C3C0008A8
:1037540081360008F8B50746FFF7ACFF1E4B1E681C
:10376400B36913B93046FFF7BDFF4836D6E90134D3
:10377400013B03D533680BB33668F7E7B4F90C5053
:10378400D5B9164BE36004F15800656600F047F8BC
:10379400FFF796FFC4E90155C4E904552560A56106
:1037A4000822294604F15C00FFF744FDC4E90D55E5
:1037B400C4E912552046F8BD6834D9E704213846D7
:1037C400FFF762FF044630600028D5D1FFF778FF89
:1037D4000C233B60EEE700BF7C3C00080100FFFFC8
:1037E4002DE9F8430646884600F148040027D4E949
:1037F4000195B9F1010905D52468002CF7D13846A3
:10380400BDE8F883AB89012B07D9B5F90E30013334
:1038140003D029463046C04707436835E9E7704777
:103824007047704770B50E46B1F90E10002996B076
:1038340014461D4608DAB6F90C3000222A601A062E
:1038440010D44FF480630EE06A4600F0A7F9002814
:10385400F1DB019A02F47042A2F500535A425A4134
:103864002A60EEE740230020236016B070BD0000FC
:103874008B8973B59D0706460C4607D504F14703AB
:10388400236023610123636102B070BD01AB6A460A
:10389400FFF7C8FF00990546304600F095F848B98F
:1038A400B4F90C309A05EFD423F0030343F0020378
:1038B400A381E3E70D4BB362A389206043F0800347
:1038C400A381009B6361019B20615BB1B4F90E107D
:1038D400304600F075F928B1A38923F0030343F0BF
:1038E4000103A381A0890543A581CDE781360008A2
:1038F40037B5002944D051F8043C0190002BA1F1C4
:103904000404B8BFE41800F07DF91E4A0198136856
:1039140033B96360146003B0BDE8304000F078B997
:10392400A34208D9256861198B4201BF19685B68F5
:1039340049192160EDE71A465B680BB1A342FAD935
:1039440011685518A5420BD1246821445418A34288
:103954001160E0D11C685B68536021441160DAE7B0
:1039640002D90C230360D6E7256861198B4204BF92
:1039740019685B68636004BF491921605460CAE731
:1039840003B030BD5401002070B50E4E0C463168B2
:10399400054611B900F08CF830602146284600F045
:1039A40087F8431C0AD0C41C24F00304A04207D0A7
:1039B400211A284600F07CF8013001D14FF0FF3481
:1039C400204670BD580100202DE9F041CD1C25F0A2
:1039D400030508350C2D38BF0C25002D074601DBE7
:1039E400A94205D90C233B6000263046BDE8F0818E
:1039F4002E4E00F007F933681C4634BB294638467E
:103A0400FFF7C2FF431C04464DD134682646002EFE
:103A140040D123683146384604EB030800F048F8E7
:103A240080453AD1216803356D1A25F00305083520
:103A34000C2D38BF0C2529463846FFF7A5FF013069
:103A44002BD023682B4423600EE02268521B1ED423
:103A54000B2A16D96119A342256018BF59606368FF
:103A640008BF316062514B60384604F10B0600F028
:103A7400CFF826F00706231DF21AB6D09B1BA350DD
:103A8400B3E76268A3420CBF32605A60ECE7234696
:103A94006468B2E734467668B9E70C233B6038467D
:103AA40000F0B6F8A1E72560DEE700BF540100206E
:103AB40038B5064D0023044608462B60FDF7F4FC98
:103AC400431C02D12B6803B1236038BD5C01002084
:103AD40010B50C46B1F90E1000F0A0F80028ABBFE9
:103AE400636DA3891B1823F48053ACBF6365A38162
:103AF40010BD2DE9F0411F468B89DB0505460C46B8
:103B0400164605D5B1F90E100223002200F068F81C
:103B1400A389B4F90E1023F48053A38132463B46A3
:103B24002846BDE8F04100F017B810B50C46B1F9CD
:103B34000E1000F055F8431CA38915BF606523F4EB
:103B4400805343F48053A38118BFA38110BDB1F9FE
:103B54000E1000F013B8000038B5074D04460846AF
:103B6400114600222A601A46FCF704FD431C02D1C8
:103B74002B6803B1236038BD5C01002038B5064DC5
:103B84000023044608462B60FDF759FC431C02D170
:103B94002B6803B1236038BD5C01002038B5074DA4
:103BA40000230446084611462B60FDF754FC431CD1
:103BB40002D12B6803B1236038BD00BF5C01002033
:103BC40038B5064D0023044608462B60FDF753FC28
:103BD400431C02D12B6803B1236038BD5C01002073
:103BE40038B5074D04460846114600222A601A4695
:103BF400FDF74CFC431C02D12B6803B1236038BD94
:103C04005C0100200148FFF70BBE00BF50010020FB
:103C14000148FFF706BE00BF5001002038B5074D2C
:103C240004460846114600222A601A46FDF7EAFBBC
:103C3400431C02D12B6803B1236038BD5C01002012
:103C4400F8B500BFF8BC08BC9E467047F8B500BF85
:083C5400F8BC08BC9E46704755
:103C5C0068656C6C6F000000000000000000000044
:103C6C000102030406070809000000000102030416
:103C7C001000002000000000000000000000000008
:103C8C000000000000000000000000000000000028
:103C9C000000000000000000000000000000000018
:103CAC000000000000000000000000000000000008
:103CBC0000000000000000000000000000000000F8
:103CCC0000000000000000000000000000000000E8
:043CDC0000000000E4
:083CE000C4C5FF7F01000000D4
:043CE800B901000816
:043CEC009501000836
:103CF0000024F4001000000001000000100000206B
:103D000000000000A03C0008C03C0008803C000807
:103D100000000000000000000000000000000000A3
:103D20000000000000000000000000000000000093
:103D30000000000000000000000000000000000083
:103D40000000000000000000000000000000000073
:103D50000000000000000000000000000000000063
:040000050800153D9D
:00000001FF
